{
	"contracts/project/CrowdFunding2.sol": {
		"CrowdFunding": {
			"abi": [
				{
					"inputs": [
						{
							"internalType": "string",
							"name": "_id",
							"type": "string"
						},
						{
							"internalType": "string",
							"name": "_name",
							"type": "string"
						},
						{
							"internalType": "string",
							"name": "_description",
							"type": "string"
						},
						{
							"internalType": "uint256",
							"name": "_fundraisingGoal",
							"type": "uint256"
						}
					],
					"stateMutability": "nonpayable",
					"type": "constructor"
				},
				{
					"anonymous": false,
					"inputs": [
						{
							"indexed": false,
							"internalType": "string",
							"name": "projectId",
							"type": "string"
						},
						{
							"indexed": false,
							"internalType": "uint256",
							"name": "value",
							"type": "uint256"
						}
					],
					"name": "ProjectFunded",
					"type": "event"
				},
				{
					"anonymous": false,
					"inputs": [
						{
							"indexed": false,
							"internalType": "string",
							"name": "id",
							"type": "string"
						},
						{
							"indexed": false,
							"internalType": "string",
							"name": "state",
							"type": "string"
						}
					],
					"name": "ProjectStateChanged",
					"type": "event"
				},
				{
					"inputs": [],
					"name": "author",
					"outputs": [
						{
							"internalType": "address payable",
							"name": "",
							"type": "address"
						}
					],
					"stateMutability": "view",
					"type": "function"
				},
				{
					"inputs": [
						{
							"internalType": "string",
							"name": "newState",
							"type": "string"
						}
					],
					"name": "changeProjectState",
					"outputs": [],
					"stateMutability": "nonpayable",
					"type": "function"
				},
				{
					"inputs": [],
					"name": "description",
					"outputs": [
						{
							"internalType": "string",
							"name": "",
							"type": "string"
						}
					],
					"stateMutability": "view",
					"type": "function"
				},
				{
					"inputs": [],
					"name": "fundProject",
					"outputs": [],
					"stateMutability": "payable",
					"type": "function"
				},
				{
					"inputs": [],
					"name": "fundraisingGoal",
					"outputs": [
						{
							"internalType": "uint256",
							"name": "",
							"type": "uint256"
						}
					],
					"stateMutability": "view",
					"type": "function"
				},
				{
					"inputs": [],
					"name": "funds",
					"outputs": [
						{
							"internalType": "uint256",
							"name": "",
							"type": "uint256"
						}
					],
					"stateMutability": "view",
					"type": "function"
				},
				{
					"inputs": [],
					"name": "id",
					"outputs": [
						{
							"internalType": "string",
							"name": "",
							"type": "string"
						}
					],
					"stateMutability": "view",
					"type": "function"
				},
				{
					"inputs": [],
					"name": "name",
					"outputs": [
						{
							"internalType": "string",
							"name": "",
							"type": "string"
						}
					],
					"stateMutability": "view",
					"type": "function"
				},
				{
					"inputs": [],
					"name": "state",
					"outputs": [
						{
							"internalType": "string",
							"name": "",
							"type": "string"
						}
					],
					"stateMutability": "view",
					"type": "function"
				}
			],
			"devdoc": {
				"kind": "dev",
				"methods": {},
				"version": 1
			},
			"evm": {
				"assembly": "    /* \"contracts/project/CrowdFunding2.sol\":74:1403  contract CrowdFunding {... */\n  mstore(0x40, 0x80)\n    /* \"contracts/project/CrowdFunding2.sol\":219:249  string public state = \"Opened\" */\n  mload(0x40)\n  dup1\n  0x40\n  add\n  0x40\n  mstore\n  dup1\n  0x06\n  dup2\n  mstore\n  0x20\n  add\n  0x4f70656e65640000000000000000000000000000000000000000000000000000\n  dup2\n  mstore\n  pop\n  0x04\n  swap1\n  dup2\n  tag_1\n  swap2\n  swap1\n  tag_2\n  jump\t// in\ntag_1:\n  pop\n    /* \"contracts/project/CrowdFunding2.sol\":442:762  constructor(... */\n  callvalue\n  dup1\n  iszero\n  tag_3\n  jumpi\n  0x00\n  dup1\n  revert\ntag_3:\n  pop\n  mload(0x40)\n  sub(codesize, bytecodeSize)\n  dup1\n  bytecodeSize\n  dup4\n  codecopy\n  dup2\n  dup2\n  add\n  0x40\n  mstore\n  dup2\n  add\n  swap1\n  tag_4\n  swap2\n  swap1\n  tag_5\n  jump\t// in\ntag_4:\n    /* \"contracts/project/CrowdFunding2.sol\":607:610  _id */\n  dup4\n    /* \"contracts/project/CrowdFunding2.sol\":602:604  id */\n  0x00\n    /* \"contracts/project/CrowdFunding2.sol\":602:610  id = _id */\n  swap1\n  dup2\n  tag_8\n  swap2\n  swap1\n  tag_2\n  jump\t// in\ntag_8:\n  pop\n    /* \"contracts/project/CrowdFunding2.sol\":628:633  _name */\n  dup3\n    /* \"contracts/project/CrowdFunding2.sol\":621:625  name */\n  0x01\n    /* \"contracts/project/CrowdFunding2.sol\":621:633  name = _name */\n  swap1\n  dup2\n  tag_9\n  swap2\n  swap1\n  tag_2\n  jump\t// in\ntag_9:\n  pop\n    /* \"contracts/project/CrowdFunding2.sol\":658:670  _description */\n  dup2\n    /* \"contracts/project/CrowdFunding2.sol\":644:655  description */\n  0x02\n    /* \"contracts/project/CrowdFunding2.sol\":644:670  description = _description */\n  swap1\n  dup2\n  tag_10\n  swap2\n  swap1\n  tag_2\n  jump\t// in\ntag_10:\n  pop\n    /* \"contracts/project/CrowdFunding2.sol\":699:715  _fundraisingGoal */\n  dup1\n    /* \"contracts/project/CrowdFunding2.sol\":681:696  fundraisingGoal */\n  0x06\n    /* \"contracts/project/CrowdFunding2.sol\":681:715  fundraisingGoal = _fundraisingGoal */\n  dup2\n  swap1\n  sstore\n  pop\n    /* \"contracts/project/CrowdFunding2.sol\":743:753  msg.sender */\n  caller\n    /* \"contracts/project/CrowdFunding2.sol\":726:732  author */\n  0x03\n  0x00\n    /* \"contracts/project/CrowdFunding2.sol\":726:754  author = payable(msg.sender) */\n  0x0100\n  exp\n  dup2\n  sload\n  dup2\n  0xffffffffffffffffffffffffffffffffffffffff\n  mul\n  not\n  and\n  swap1\n  dup4\n  0xffffffffffffffffffffffffffffffffffffffff\n  and\n  mul\n  or\n  swap1\n  sstore\n  pop\n    /* \"contracts/project/CrowdFunding2.sol\":442:762  constructor(... */\n  pop\n  pop\n  pop\n  pop\n    /* \"contracts/project/CrowdFunding2.sol\":74:1403  contract CrowdFunding {... */\n  jump(tag_11)\n    /* \"#utility.yul\":7:106   */\ntag_12:\n    /* \"#utility.yul\":59:65   */\n  0x00\n    /* \"#utility.yul\":93:98   */\n  dup2\n    /* \"#utility.yul\":87:99   */\n  mload\n    /* \"#utility.yul\":77:99   */\n  swap1\n  pop\n    /* \"#utility.yul\":7:106   */\n  swap2\n  swap1\n  pop\n  jump\t// out\n    /* \"#utility.yul\":112:292   */\ntag_13:\n    /* \"#utility.yul\":160:237   */\n  0x4e487b7100000000000000000000000000000000000000000000000000000000\n    /* \"#utility.yul\":157:158   */\n  0x00\n    /* \"#utility.yul\":150:238   */\n  mstore\n    /* \"#utility.yul\":257:261   */\n  0x41\n    /* \"#utility.yul\":254:255   */\n  0x04\n    /* \"#utility.yul\":247:262   */\n  mstore\n    /* \"#utility.yul\":281:285   */\n  0x24\n    /* \"#utility.yul\":278:279   */\n  0x00\n    /* \"#utility.yul\":271:286   */\n  revert\n    /* \"#utility.yul\":298:478   */\ntag_14:\n    /* \"#utility.yul\":346:423   */\n  0x4e487b7100000000000000000000000000000000000000000000000000000000\n    /* \"#utility.yul\":343:344   */\n  0x00\n    /* \"#utility.yul\":336:424   */\n  mstore\n    /* \"#utility.yul\":443:447   */\n  0x22\n    /* \"#utility.yul\":440:441   */\n  0x04\n    /* \"#utility.yul\":433:448   */\n  mstore\n    /* \"#utility.yul\":467:471   */\n  0x24\n    /* \"#utility.yul\":464:465   */\n  0x00\n    /* \"#utility.yul\":457:472   */\n  revert\n    /* \"#utility.yul\":484:804   */\ntag_15:\n    /* \"#utility.yul\":528:534   */\n  0x00\n    /* \"#utility.yul\":565:566   */\n  0x02\n    /* \"#utility.yul\":559:563   */\n  dup3\n    /* \"#utility.yul\":555:567   */\n  div\n    /* \"#utility.yul\":545:567   */\n  swap1\n  pop\n    /* \"#utility.yul\":612:613   */\n  0x01\n    /* \"#utility.yul\":606:610   */\n  dup3\n    /* \"#utility.yul\":602:614   */\n  and\n    /* \"#utility.yul\":633:651   */\n  dup1\n    /* \"#utility.yul\":623:704   */\n  tag_51\n  jumpi\n    /* \"#utility.yul\":689:693   */\n  0x7f\n    /* \"#utility.yul\":681:687   */\n  dup3\n    /* \"#utility.yul\":677:694   */\n  and\n    /* \"#utility.yul\":667:694   */\n  swap2\n  pop\n    /* \"#utility.yul\":623:704   */\ntag_51:\n    /* \"#utility.yul\":751:753   */\n  0x20\n    /* \"#utility.yul\":743:749   */\n  dup3\n    /* \"#utility.yul\":740:754   */\n  lt\n    /* \"#utility.yul\":720:738   */\n  dup2\n    /* \"#utility.yul\":717:755   */\n  sub\n    /* \"#utility.yul\":714:798   */\n  tag_52\n  jumpi\n    /* \"#utility.yul\":770:788   */\n  tag_53\n  tag_14\n  jump\t// in\ntag_53:\n    /* \"#utility.yul\":714:798   */\ntag_52:\n    /* \"#utility.yul\":535:804   */\n  pop\n    /* \"#utility.yul\":484:804   */\n  swap2\n  swap1\n  pop\n  jump\t// out\n    /* \"#utility.yul\":810:951   */\ntag_16:\n    /* \"#utility.yul\":859:863   */\n  0x00\n    /* \"#utility.yul\":882:885   */\n  dup2\n    /* \"#utility.yul\":874:885   */\n  swap1\n  pop\n    /* \"#utility.yul\":905:908   */\n  dup2\n    /* \"#utility.yul\":902:903   */\n  0x00\n    /* \"#utility.yul\":895:909   */\n  mstore\n    /* \"#utility.yul\":939:943   */\n  0x20\n    /* \"#utility.yul\":936:937   */\n  0x00\n    /* \"#utility.yul\":926:944   */\n  keccak256\n    /* \"#utility.yul\":918:944   */\n  swap1\n  pop\n    /* \"#utility.yul\":810:951   */\n  swap2\n  swap1\n  pop\n  jump\t// out\n    /* \"#utility.yul\":957:1050   */\ntag_17:\n    /* \"#utility.yul\":994:1000   */\n  0x00\n    /* \"#utility.yul\":1041:1043   */\n  0x20\n    /* \"#utility.yul\":1036:1038   */\n  0x1f\n    /* \"#utility.yul\":1029:1034   */\n  dup4\n    /* \"#utility.yul\":1025:1039   */\n  add\n    /* \"#utility.yul\":1021:1044   */\n  div\n    /* \"#utility.yul\":1011:1044   */\n  swap1\n  pop\n    /* \"#utility.yul\":957:1050   */\n  swap2\n  swap1\n  pop\n  jump\t// out\n    /* \"#utility.yul\":1056:1163   */\ntag_18:\n    /* \"#utility.yul\":1100:1108   */\n  0x00\n    /* \"#utility.yul\":1150:1155   */\n  dup3\n    /* \"#utility.yul\":1144:1148   */\n  dup3\n    /* \"#utility.yul\":1140:1156   */\n  shl\n    /* \"#utility.yul\":1119:1156   */\n  swap1\n  pop\n    /* \"#utility.yul\":1056:1163   */\n  swap3\n  swap2\n  pop\n  pop\n  jump\t// out\n    /* \"#utility.yul\":1169:1562   */\ntag_19:\n    /* \"#utility.yul\":1238:1244   */\n  0x00\n    /* \"#utility.yul\":1288:1289   */\n  0x08\n    /* \"#utility.yul\":1276:1286   */\n  dup4\n    /* \"#utility.yul\":1272:1290   */\n  mul\n    /* \"#utility.yul\":1311:1408   */\n  tag_58\n    /* \"#utility.yul\":1341:1407   */\n  0xffffffffffffffffffffffffffffffffffffffffffffffffffffffffffffffff\n    /* \"#utility.yul\":1330:1339   */\n  dup3\n    /* \"#utility.yul\":1311:1408   */\n  tag_18\n  jump\t// in\ntag_58:\n    /* \"#utility.yul\":1429:1468   */\n  tag_59\n    /* \"#utility.yul\":1459:1467   */\n  dup7\n    /* \"#utility.yul\":1448:1457   */\n  dup4\n    /* \"#utility.yul\":1429:1468   */\n  tag_18\n  jump\t// in\ntag_59:\n    /* \"#utility.yul\":1417:1468   */\n  swap6\n  pop\n    /* \"#utility.yul\":1501:1505   */\n  dup1\n    /* \"#utility.yul\":1497:1506   */\n  not\n    /* \"#utility.yul\":1490:1495   */\n  dup5\n    /* \"#utility.yul\":1486:1507   */\n  and\n    /* \"#utility.yul\":1477:1507   */\n  swap4\n  pop\n    /* \"#utility.yul\":1550:1554   */\n  dup1\n    /* \"#utility.yul\":1540:1548   */\n  dup7\n    /* \"#utility.yul\":1536:1555   */\n  and\n    /* \"#utility.yul\":1529:1534   */\n  dup5\n    /* \"#utility.yul\":1526:1556   */\n  or\n    /* \"#utility.yul\":1516:1556   */\n  swap3\n  pop\n    /* \"#utility.yul\":1245:1562   */\n  pop\n  pop\n    /* \"#utility.yul\":1169:1562   */\n  swap4\n  swap3\n  pop\n  pop\n  pop\n  jump\t// out\n    /* \"#utility.yul\":1568:1645   */\ntag_20:\n    /* \"#utility.yul\":1605:1612   */\n  0x00\n    /* \"#utility.yul\":1634:1639   */\n  dup2\n    /* \"#utility.yul\":1623:1639   */\n  swap1\n  pop\n    /* \"#utility.yul\":1568:1645   */\n  swap2\n  swap1\n  pop\n  jump\t// out\n    /* \"#utility.yul\":1651:1711   */\ntag_21:\n    /* \"#utility.yul\":1679:1682   */\n  0x00\n    /* \"#utility.yul\":1700:1705   */\n  dup2\n    /* \"#utility.yul\":1693:1705   */\n  swap1\n  pop\n    /* \"#utility.yul\":1651:1711   */\n  swap2\n  swap1\n  pop\n  jump\t// out\n    /* \"#utility.yul\":1717:1859   */\ntag_22:\n    /* \"#utility.yul\":1767:1776   */\n  0x00\n    /* \"#utility.yul\":1800:1853   */\n  tag_63\n    /* \"#utility.yul\":1818:1852   */\n  tag_64\n    /* \"#utility.yul\":1827:1851   */\n  tag_65\n    /* \"#utility.yul\":1845:1850   */\n  dup5\n    /* \"#utility.yul\":1827:1851   */\n  tag_20\n  jump\t// in\ntag_65:\n    /* \"#utility.yul\":1818:1852   */\n  tag_21\n  jump\t// in\ntag_64:\n    /* \"#utility.yul\":1800:1853   */\n  tag_20\n  jump\t// in\ntag_63:\n    /* \"#utility.yul\":1787:1853   */\n  swap1\n  pop\n    /* \"#utility.yul\":1717:1859   */\n  swap2\n  swap1\n  pop\n  jump\t// out\n    /* \"#utility.yul\":1865:1940   */\ntag_23:\n    /* \"#utility.yul\":1908:1911   */\n  0x00\n    /* \"#utility.yul\":1929:1934   */\n  dup2\n    /* \"#utility.yul\":1922:1934   */\n  swap1\n  pop\n    /* \"#utility.yul\":1865:1940   */\n  swap2\n  swap1\n  pop\n  jump\t// out\n    /* \"#utility.yul\":1946:2215   */\ntag_24:\n    /* \"#utility.yul\":2056:2095   */\n  tag_68\n    /* \"#utility.yul\":2087:2094   */\n  dup4\n    /* \"#utility.yul\":2056:2095   */\n  tag_22\n  jump\t// in\ntag_68:\n    /* \"#utility.yul\":2117:2208   */\n  tag_69\n    /* \"#utility.yul\":2166:2207   */\n  tag_70\n    /* \"#utility.yul\":2190:2206   */\n  dup3\n    /* \"#utility.yul\":2166:2207   */\n  tag_23\n  jump\t// in\ntag_70:\n    /* \"#utility.yul\":2158:2164   */\n  dup5\n    /* \"#utility.yul\":2151:2155   */\n  dup5\n    /* \"#utility.yul\":2145:2156   */\n  sload\n    /* \"#utility.yul\":2117:2208   */\n  tag_19\n  jump\t// in\ntag_69:\n    /* \"#utility.yul\":2111:2115   */\n  dup3\n    /* \"#utility.yul\":2104:2209   */\n  sstore\n    /* \"#utility.yul\":2022:2215   */\n  pop\n    /* \"#utility.yul\":1946:2215   */\n  pop\n  pop\n  pop\n  jump\t// out\n    /* \"#utility.yul\":2221:2294   */\ntag_25:\n    /* \"#utility.yul\":2266:2269   */\n  0x00\n    /* \"#utility.yul\":2221:2294   */\n  swap1\n  jump\t// out\n    /* \"#utility.yul\":2300:2489   */\ntag_26:\n    /* \"#utility.yul\":2377:2409   */\n  tag_73\n  tag_25\n  jump\t// in\ntag_73:\n    /* \"#utility.yul\":2418:2483   */\n  tag_74\n    /* \"#utility.yul\":2476:2482   */\n  dup2\n    /* \"#utility.yul\":2468:2474   */\n  dup5\n    /* \"#utility.yul\":2462:2466   */\n  dup5\n    /* \"#utility.yul\":2418:2483   */\n  tag_24\n  jump\t// in\ntag_74:\n    /* \"#utility.yul\":2353:2489   */\n  pop\n    /* \"#utility.yul\":2300:2489   */\n  pop\n  pop\n  jump\t// out\n    /* \"#utility.yul\":2495:2681   */\ntag_27:\n    /* \"#utility.yul\":2555:2675   */\ntag_76:\n    /* \"#utility.yul\":2572:2575   */\n  dup2\n    /* \"#utility.yul\":2565:2570   */\n  dup2\n    /* \"#utility.yul\":2562:2576   */\n  lt\n    /* \"#utility.yul\":2555:2675   */\n  iszero\n  tag_78\n  jumpi\n    /* \"#utility.yul\":2626:2665   */\n  tag_79\n    /* \"#utility.yul\":2663:2664   */\n  0x00\n    /* \"#utility.yul\":2656:2661   */\n  dup3\n    /* \"#utility.yul\":2626:2665   */\n  tag_26\n  jump\t// in\ntag_79:\n    /* \"#utility.yul\":2599:2600   */\n  0x01\n    /* \"#utility.yul\":2592:2597   */\n  dup2\n    /* \"#utility.yul\":2588:2601   */\n  add\n    /* \"#utility.yul\":2579:2601   */\n  swap1\n  pop\n    /* \"#utility.yul\":2555:2675   */\n  jump(tag_76)\ntag_78:\n    /* \"#utility.yul\":2495:2681   */\n  pop\n  pop\n  jump\t// out\n    /* \"#utility.yul\":2687:3230   */\ntag_28:\n    /* \"#utility.yul\":2788:2790   */\n  0x1f\n    /* \"#utility.yul\":2783:2786   */\n  dup3\n    /* \"#utility.yul\":2780:2791   */\n  gt\n    /* \"#utility.yul\":2777:3223   */\n  iszero\n  tag_81\n  jumpi\n    /* \"#utility.yul\":2822:2860   */\n  tag_82\n    /* \"#utility.yul\":2854:2859   */\n  dup2\n    /* \"#utility.yul\":2822:2860   */\n  tag_16\n  jump\t// in\ntag_82:\n    /* \"#utility.yul\":2906:2935   */\n  tag_83\n    /* \"#utility.yul\":2924:2934   */\n  dup5\n    /* \"#utility.yul\":2906:2935   */\n  tag_17\n  jump\t// in\ntag_83:\n    /* \"#utility.yul\":2896:2904   */\n  dup2\n    /* \"#utility.yul\":2892:2936   */\n  add\n    /* \"#utility.yul\":3089:3091   */\n  0x20\n    /* \"#utility.yul\":3077:3087   */\n  dup6\n    /* \"#utility.yul\":3074:3092   */\n  lt\n    /* \"#utility.yul\":3071:3120   */\n  iszero\n  tag_84\n  jumpi\n    /* \"#utility.yul\":3110:3118   */\n  dup2\n    /* \"#utility.yul\":3095:3118   */\n  swap1\n  pop\n    /* \"#utility.yul\":3071:3120   */\ntag_84:\n    /* \"#utility.yul\":3133:3213   */\n  tag_85\n    /* \"#utility.yul\":3189:3211   */\n  tag_86\n    /* \"#utility.yul\":3207:3210   */\n  dup6\n    /* \"#utility.yul\":3189:3211   */\n  tag_17\n  jump\t// in\ntag_86:\n    /* \"#utility.yul\":3179:3187   */\n  dup4\n    /* \"#utility.yul\":3175:3212   */\n  add\n    /* \"#utility.yul\":3162:3173   */\n  dup3\n    /* \"#utility.yul\":3133:3213   */\n  tag_27\n  jump\t// in\ntag_85:\n    /* \"#utility.yul\":2792:3223   */\n  pop\n  pop\n    /* \"#utility.yul\":2777:3223   */\ntag_81:\n    /* \"#utility.yul\":2687:3230   */\n  pop\n  pop\n  pop\n  jump\t// out\n    /* \"#utility.yul\":3236:3353   */\ntag_29:\n    /* \"#utility.yul\":3290:3298   */\n  0x00\n    /* \"#utility.yul\":3340:3345   */\n  dup3\n    /* \"#utility.yul\":3334:3338   */\n  dup3\n    /* \"#utility.yul\":3330:3346   */\n  shr\n    /* \"#utility.yul\":3309:3346   */\n  swap1\n  pop\n    /* \"#utility.yul\":3236:3353   */\n  swap3\n  swap2\n  pop\n  pop\n  jump\t// out\n    /* \"#utility.yul\":3359:3528   */\ntag_30:\n    /* \"#utility.yul\":3403:3409   */\n  0x00\n    /* \"#utility.yul\":3436:3487   */\n  tag_89\n    /* \"#utility.yul\":3484:3485   */\n  0x00\n    /* \"#utility.yul\":3480:3486   */\n  not\n    /* \"#utility.yul\":3472:3477   */\n  dup5\n    /* \"#utility.yul\":3469:3470   */\n  0x08\n    /* \"#utility.yul\":3465:3478   */\n  mul\n    /* \"#utility.yul\":3436:3487   */\n  tag_29\n  jump\t// in\ntag_89:\n    /* \"#utility.yul\":3432:3488   */\n  not\n    /* \"#utility.yul\":3517:3521   */\n  dup1\n    /* \"#utility.yul\":3511:3515   */\n  dup4\n    /* \"#utility.yul\":3507:3522   */\n  and\n    /* \"#utility.yul\":3497:3522   */\n  swap2\n  pop\n    /* \"#utility.yul\":3410:3528   */\n  pop\n    /* \"#utility.yul\":3359:3528   */\n  swap3\n  swap2\n  pop\n  pop\n  jump\t// out\n    /* \"#utility.yul\":3533:3828   */\ntag_31:\n    /* \"#utility.yul\":3609:3613   */\n  0x00\n    /* \"#utility.yul\":3755:3784   */\n  tag_91\n    /* \"#utility.yul\":3780:3783   */\n  dup4\n    /* \"#utility.yul\":3774:3778   */\n  dup4\n    /* \"#utility.yul\":3755:3784   */\n  tag_30\n  jump\t// in\ntag_91:\n    /* \"#utility.yul\":3747:3784   */\n  swap2\n  pop\n    /* \"#utility.yul\":3817:3820   */\n  dup3\n    /* \"#utility.yul\":3814:3815   */\n  0x02\n    /* \"#utility.yul\":3810:3821   */\n  mul\n    /* \"#utility.yul\":3804:3808   */\n  dup3\n    /* \"#utility.yul\":3801:3822   */\n  or\n    /* \"#utility.yul\":3793:3822   */\n  swap1\n  pop\n    /* \"#utility.yul\":3533:3828   */\n  swap3\n  swap2\n  pop\n  pop\n  jump\t// out\n    /* \"#utility.yul\":3833:5228   */\ntag_2:\n    /* \"#utility.yul\":3950:3987   */\n  tag_93\n    /* \"#utility.yul\":3983:3986   */\n  dup3\n    /* \"#utility.yul\":3950:3987   */\n  tag_12\n  jump\t// in\ntag_93:\n    /* \"#utility.yul\":4052:4070   */\n  0xffffffffffffffff\n    /* \"#utility.yul\":4044:4050   */\n  dup2\n    /* \"#utility.yul\":4041:4071   */\n  gt\n    /* \"#utility.yul\":4038:4094   */\n  iszero\n  tag_94\n  jumpi\n    /* \"#utility.yul\":4074:4092   */\n  tag_95\n  tag_13\n  jump\t// in\ntag_95:\n    /* \"#utility.yul\":4038:4094   */\ntag_94:\n    /* \"#utility.yul\":4118:4156   */\n  tag_96\n    /* \"#utility.yul\":4150:4154   */\n  dup3\n    /* \"#utility.yul\":4144:4155   */\n  sload\n    /* \"#utility.yul\":4118:4156   */\n  tag_15\n  jump\t// in\ntag_96:\n    /* \"#utility.yul\":4203:4270   */\n  tag_97\n    /* \"#utility.yul\":4263:4269   */\n  dup3\n    /* \"#utility.yul\":4255:4261   */\n  dup3\n    /* \"#utility.yul\":4249:4253   */\n  dup6\n    /* \"#utility.yul\":4203:4270   */\n  tag_28\n  jump\t// in\ntag_97:\n    /* \"#utility.yul\":4297:4298   */\n  0x00\n    /* \"#utility.yul\":4321:4325   */\n  0x20\n    /* \"#utility.yul\":4308:4325   */\n  swap1\n  pop\n    /* \"#utility.yul\":4353:4355   */\n  0x1f\n    /* \"#utility.yul\":4345:4351   */\n  dup4\n    /* \"#utility.yul\":4342:4356   */\n  gt\n    /* \"#utility.yul\":4370:4371   */\n  0x01\n    /* \"#utility.yul\":4365:4983   */\n  dup2\n  eq\n  tag_99\n  jumpi\n    /* \"#utility.yul\":5027:5028   */\n  0x00\n    /* \"#utility.yul\":5044:5050   */\n  dup5\n    /* \"#utility.yul\":5041:5118   */\n  iszero\n  tag_100\n  jumpi\n    /* \"#utility.yul\":5093:5102   */\n  dup3\n    /* \"#utility.yul\":5088:5091   */\n  dup8\n    /* \"#utility.yul\":5084:5103   */\n  add\n    /* \"#utility.yul\":5078:5104   */\n  mload\n    /* \"#utility.yul\":5069:5104   */\n  swap1\n  pop\n    /* \"#utility.yul\":5041:5118   */\ntag_100:\n    /* \"#utility.yul\":5144:5211   */\n  tag_101\n    /* \"#utility.yul\":5204:5210   */\n  dup6\n    /* \"#utility.yul\":5197:5202   */\n  dup3\n    /* \"#utility.yul\":5144:5211   */\n  tag_31\n  jump\t// in\ntag_101:\n    /* \"#utility.yul\":5138:5142   */\n  dup7\n    /* \"#utility.yul\":5131:5212   */\n  sstore\n    /* \"#utility.yul\":5000:5222   */\n  pop\n    /* \"#utility.yul\":4335:5222   */\n  jump(tag_98)\n    /* \"#utility.yul\":4365:4983   */\ntag_99:\n    /* \"#utility.yul\":4417:4421   */\n  0x1f\n    /* \"#utility.yul\":4413:4422   */\n  not\n    /* \"#utility.yul\":4405:4411   */\n  dup5\n    /* \"#utility.yul\":4401:4423   */\n  and\n    /* \"#utility.yul\":4451:4488   */\n  tag_102\n    /* \"#utility.yul\":4483:4487   */\n  dup7\n    /* \"#utility.yul\":4451:4488   */\n  tag_16\n  jump\t// in\ntag_102:\n    /* \"#utility.yul\":4510:4511   */\n  0x00\n    /* \"#utility.yul\":4524:4732   */\ntag_103:\n    /* \"#utility.yul\":4538:4545   */\n  dup3\n    /* \"#utility.yul\":4535:4536   */\n  dup2\n    /* \"#utility.yul\":4532:4546   */\n  lt\n    /* \"#utility.yul\":4524:4732   */\n  iszero\n  tag_105\n  jumpi\n    /* \"#utility.yul\":4617:4626   */\n  dup5\n    /* \"#utility.yul\":4612:4615   */\n  dup10\n    /* \"#utility.yul\":4608:4627   */\n  add\n    /* \"#utility.yul\":4602:4628   */\n  mload\n    /* \"#utility.yul\":4594:4600   */\n  dup3\n    /* \"#utility.yul\":4587:4629   */\n  sstore\n    /* \"#utility.yul\":4668:4669   */\n  0x01\n    /* \"#utility.yul\":4660:4666   */\n  dup3\n    /* \"#utility.yul\":4656:4670   */\n  add\n    /* \"#utility.yul\":4646:4670   */\n  swap2\n  pop\n    /* \"#utility.yul\":4715:4717   */\n  0x20\n    /* \"#utility.yul\":4704:4713   */\n  dup6\n    /* \"#utility.yul\":4700:4718   */\n  add\n    /* \"#utility.yul\":4687:4718   */\n  swap5\n  pop\n    /* \"#utility.yul\":4561:4565   */\n  0x20\n    /* \"#utility.yul\":4558:4559   */\n  dup2\n    /* \"#utility.yul\":4554:4566   */\n  add\n    /* \"#utility.yul\":4549:4566   */\n  swap1\n  pop\n    /* \"#utility.yul\":4524:4732   */\n  jump(tag_103)\ntag_105:\n    /* \"#utility.yul\":4760:4766   */\n  dup7\n    /* \"#utility.yul\":4751:4758   */\n  dup4\n    /* \"#utility.yul\":4748:4767   */\n  lt\n    /* \"#utility.yul\":4745:4924   */\n  iszero\n  tag_106\n  jumpi\n    /* \"#utility.yul\":4818:4827   */\n  dup5\n    /* \"#utility.yul\":4813:4816   */\n  dup10\n    /* \"#utility.yul\":4809:4828   */\n  add\n    /* \"#utility.yul\":4803:4829   */\n  mload\n    /* \"#utility.yul\":4861:4909   */\n  tag_107\n    /* \"#utility.yul\":4903:4907   */\n  0x1f\n    /* \"#utility.yul\":4895:4901   */\n  dup10\n    /* \"#utility.yul\":4891:4908   */\n  and\n    /* \"#utility.yul\":4880:4889   */\n  dup3\n    /* \"#utility.yul\":4861:4909   */\n  tag_30\n  jump\t// in\ntag_107:\n    /* \"#utility.yul\":4853:4859   */\n  dup4\n    /* \"#utility.yul\":4846:4910   */\n  sstore\n    /* \"#utility.yul\":4768:4924   */\n  pop\n    /* \"#utility.yul\":4745:4924   */\ntag_106:\n    /* \"#utility.yul\":4970:4971   */\n  0x01\n    /* \"#utility.yul\":4966:4967   */\n  0x02\n    /* \"#utility.yul\":4958:4964   */\n  dup9\n    /* \"#utility.yul\":4954:4968   */\n  mul\n    /* \"#utility.yul\":4950:4972   */\n  add\n    /* \"#utility.yul\":4944:4948   */\n  dup9\n    /* \"#utility.yul\":4937:4973   */\n  sstore\n    /* \"#utility.yul\":4372:4983   */\n  pop\n  pop\n  pop\n    /* \"#utility.yul\":4335:5222   */\ntag_98:\n  pop\n    /* \"#utility.yul\":3925:5228   */\n  pop\n  pop\n  pop\n    /* \"#utility.yul\":3833:5228   */\n  pop\n  pop\n  jump\t// out\n    /* \"#utility.yul\":5234:5309   */\ntag_32:\n    /* \"#utility.yul\":5267:5273   */\n  0x00\n    /* \"#utility.yul\":5300:5302   */\n  0x40\n    /* \"#utility.yul\":5294:5303   */\n  mload\n    /* \"#utility.yul\":5284:5303   */\n  swap1\n  pop\n    /* \"#utility.yul\":5234:5309   */\n  swap1\n  jump\t// out\n    /* \"#utility.yul\":5315:5432   */\ntag_33:\n    /* \"#utility.yul\":5424:5425   */\n  0x00\n    /* \"#utility.yul\":5421:5422   */\n  dup1\n    /* \"#utility.yul\":5414:5426   */\n  revert\n    /* \"#utility.yul\":5438:5555   */\ntag_34:\n    /* \"#utility.yul\":5547:5548   */\n  0x00\n    /* \"#utility.yul\":5544:5545   */\n  dup1\n    /* \"#utility.yul\":5537:5549   */\n  revert\n    /* \"#utility.yul\":5561:5678   */\ntag_35:\n    /* \"#utility.yul\":5670:5671   */\n  0x00\n    /* \"#utility.yul\":5667:5668   */\n  dup1\n    /* \"#utility.yul\":5660:5672   */\n  revert\n    /* \"#utility.yul\":5684:5801   */\ntag_36:\n    /* \"#utility.yul\":5793:5794   */\n  0x00\n    /* \"#utility.yul\":5790:5791   */\n  dup1\n    /* \"#utility.yul\":5783:5795   */\n  revert\n    /* \"#utility.yul\":5807:5909   */\ntag_37:\n    /* \"#utility.yul\":5848:5854   */\n  0x00\n    /* \"#utility.yul\":5899:5901   */\n  0x1f\n    /* \"#utility.yul\":5895:5902   */\n  not\n    /* \"#utility.yul\":5890:5892   */\n  0x1f\n    /* \"#utility.yul\":5883:5888   */\n  dup4\n    /* \"#utility.yul\":5879:5893   */\n  add\n    /* \"#utility.yul\":5875:5903   */\n  and\n    /* \"#utility.yul\":5865:5903   */\n  swap1\n  pop\n    /* \"#utility.yul\":5807:5909   */\n  swap2\n  swap1\n  pop\n  jump\t// out\n    /* \"#utility.yul\":5915:6196   */\ntag_38:\n    /* \"#utility.yul\":5998:6025   */\n  tag_115\n    /* \"#utility.yul\":6020:6024   */\n  dup3\n    /* \"#utility.yul\":5998:6025   */\n  tag_37\n  jump\t// in\ntag_115:\n    /* \"#utility.yul\":5990:5996   */\n  dup2\n    /* \"#utility.yul\":5986:6026   */\n  add\n    /* \"#utility.yul\":6128:6134   */\n  dup2\n    /* \"#utility.yul\":6116:6126   */\n  dup2\n    /* \"#utility.yul\":6113:6135   */\n  lt\n    /* \"#utility.yul\":6092:6110   */\n  0xffffffffffffffff\n    /* \"#utility.yul\":6080:6090   */\n  dup3\n    /* \"#utility.yul\":6077:6111   */\n  gt\n    /* \"#utility.yul\":6074:6136   */\n  or\n    /* \"#utility.yul\":6071:6159   */\n  iszero\n  tag_116\n  jumpi\n    /* \"#utility.yul\":6139:6157   */\n  tag_117\n  tag_13\n  jump\t// in\ntag_117:\n    /* \"#utility.yul\":6071:6159   */\ntag_116:\n    /* \"#utility.yul\":6179:6189   */\n  dup1\n    /* \"#utility.yul\":6175:6177   */\n  0x40\n    /* \"#utility.yul\":6168:6190   */\n  mstore\n    /* \"#utility.yul\":5958:6196   */\n  pop\n    /* \"#utility.yul\":5915:6196   */\n  pop\n  pop\n  jump\t// out\n    /* \"#utility.yul\":6202:6331   */\ntag_39:\n    /* \"#utility.yul\":6236:6242   */\n  0x00\n    /* \"#utility.yul\":6263:6283   */\n  tag_119\n  tag_32\n  jump\t// in\ntag_119:\n    /* \"#utility.yul\":6253:6283   */\n  swap1\n  pop\n    /* \"#utility.yul\":6292:6325   */\n  tag_120\n    /* \"#utility.yul\":6320:6324   */\n  dup3\n    /* \"#utility.yul\":6312:6318   */\n  dup3\n    /* \"#utility.yul\":6292:6325   */\n  tag_38\n  jump\t// in\ntag_120:\n    /* \"#utility.yul\":6202:6331   */\n  swap2\n  swap1\n  pop\n  jump\t// out\n    /* \"#utility.yul\":6337:6645   */\ntag_40:\n    /* \"#utility.yul\":6399:6403   */\n  0x00\n    /* \"#utility.yul\":6489:6507   */\n  0xffffffffffffffff\n    /* \"#utility.yul\":6481:6487   */\n  dup3\n    /* \"#utility.yul\":6478:6508   */\n  gt\n    /* \"#utility.yul\":6475:6531   */\n  iszero\n  tag_122\n  jumpi\n    /* \"#utility.yul\":6511:6529   */\n  tag_123\n  tag_13\n  jump\t// in\ntag_123:\n    /* \"#utility.yul\":6475:6531   */\ntag_122:\n    /* \"#utility.yul\":6549:6578   */\n  tag_124\n    /* \"#utility.yul\":6571:6577   */\n  dup3\n    /* \"#utility.yul\":6549:6578   */\n  tag_37\n  jump\t// in\ntag_124:\n    /* \"#utility.yul\":6541:6578   */\n  swap1\n  pop\n    /* \"#utility.yul\":6633:6637   */\n  0x20\n    /* \"#utility.yul\":6627:6631   */\n  dup2\n    /* \"#utility.yul\":6623:6638   */\n  add\n    /* \"#utility.yul\":6615:6638   */\n  swap1\n  pop\n    /* \"#utility.yul\":6337:6645   */\n  swap2\n  swap1\n  pop\n  jump\t// out\n    /* \"#utility.yul\":6651:6897   */\ntag_41:\n    /* \"#utility.yul\":6732:6733   */\n  0x00\n    /* \"#utility.yul\":6742:6855   */\ntag_126:\n    /* \"#utility.yul\":6756:6762   */\n  dup4\n    /* \"#utility.yul\":6753:6754   */\n  dup2\n    /* \"#utility.yul\":6750:6763   */\n  lt\n    /* \"#utility.yul\":6742:6855   */\n  iszero\n  tag_128\n  jumpi\n    /* \"#utility.yul\":6841:6842   */\n  dup1\n    /* \"#utility.yul\":6836:6839   */\n  dup3\n    /* \"#utility.yul\":6832:6843   */\n  add\n    /* \"#utility.yul\":6826:6844   */\n  mload\n    /* \"#utility.yul\":6822:6823   */\n  dup2\n    /* \"#utility.yul\":6817:6820   */\n  dup5\n    /* \"#utility.yul\":6813:6824   */\n  add\n    /* \"#utility.yul\":6806:6845   */\n  mstore\n    /* \"#utility.yul\":6778:6780   */\n  0x20\n    /* \"#utility.yul\":6775:6776   */\n  dup2\n    /* \"#utility.yul\":6771:6781   */\n  add\n    /* \"#utility.yul\":6766:6781   */\n  swap1\n  pop\n    /* \"#utility.yul\":6742:6855   */\n  jump(tag_126)\ntag_128:\n    /* \"#utility.yul\":6889:6890   */\n  0x00\n    /* \"#utility.yul\":6880:6886   */\n  dup5\n    /* \"#utility.yul\":6875:6878   */\n  dup5\n    /* \"#utility.yul\":6871:6887   */\n  add\n    /* \"#utility.yul\":6864:6891   */\n  mstore\n    /* \"#utility.yul\":6713:6897   */\n  pop\n    /* \"#utility.yul\":6651:6897   */\n  pop\n  pop\n  pop\n  jump\t// out\n    /* \"#utility.yul\":6903:7337   */\ntag_42:\n    /* \"#utility.yul\":6992:6997   */\n  0x00\n    /* \"#utility.yul\":7017:7083   */\n  tag_130\n    /* \"#utility.yul\":7033:7082   */\n  tag_131\n    /* \"#utility.yul\":7075:7081   */\n  dup5\n    /* \"#utility.yul\":7033:7082   */\n  tag_40\n  jump\t// in\ntag_131:\n    /* \"#utility.yul\":7017:7083   */\n  tag_39\n  jump\t// in\ntag_130:\n    /* \"#utility.yul\":7008:7083   */\n  swap1\n  pop\n    /* \"#utility.yul\":7106:7112   */\n  dup3\n    /* \"#utility.yul\":7099:7104   */\n  dup2\n    /* \"#utility.yul\":7092:7113   */\n  mstore\n    /* \"#utility.yul\":7144:7148   */\n  0x20\n    /* \"#utility.yul\":7137:7142   */\n  dup2\n    /* \"#utility.yul\":7133:7149   */\n  add\n    /* \"#utility.yul\":7182:7185   */\n  dup5\n    /* \"#utility.yul\":7173:7179   */\n  dup5\n    /* \"#utility.yul\":7168:7171   */\n  dup5\n    /* \"#utility.yul\":7164:7180   */\n  add\n    /* \"#utility.yul\":7161:7186   */\n  gt\n    /* \"#utility.yul\":7158:7270   */\n  iszero\n  tag_132\n  jumpi\n    /* \"#utility.yul\":7189:7268   */\n  tag_133\n  tag_36\n  jump\t// in\ntag_133:\n    /* \"#utility.yul\":7158:7270   */\ntag_132:\n    /* \"#utility.yul\":7279:7331   */\n  tag_134\n    /* \"#utility.yul\":7324:7330   */\n  dup5\n    /* \"#utility.yul\":7319:7322   */\n  dup3\n    /* \"#utility.yul\":7314:7317   */\n  dup6\n    /* \"#utility.yul\":7279:7331   */\n  tag_41\n  jump\t// in\ntag_134:\n    /* \"#utility.yul\":6998:7337   */\n  pop\n    /* \"#utility.yul\":6903:7337   */\n  swap4\n  swap3\n  pop\n  pop\n  pop\n  jump\t// out\n    /* \"#utility.yul\":7357:7712   */\ntag_43:\n    /* \"#utility.yul\":7424:7429   */\n  0x00\n    /* \"#utility.yul\":7473:7476   */\n  dup3\n    /* \"#utility.yul\":7466:7470   */\n  0x1f\n    /* \"#utility.yul\":7458:7464   */\n  dup4\n    /* \"#utility.yul\":7454:7471   */\n  add\n    /* \"#utility.yul\":7450:7477   */\n  slt\n    /* \"#utility.yul\":7440:7562   */\n  tag_136\n  jumpi\n    /* \"#utility.yul\":7481:7560   */\n  tag_137\n  tag_35\n  jump\t// in\ntag_137:\n    /* \"#utility.yul\":7440:7562   */\ntag_136:\n    /* \"#utility.yul\":7591:7597   */\n  dup2\n    /* \"#utility.yul\":7585:7598   */\n  mload\n    /* \"#utility.yul\":7616:7706   */\n  tag_138\n    /* \"#utility.yul\":7702:7705   */\n  dup5\n    /* \"#utility.yul\":7694:7700   */\n  dup3\n    /* \"#utility.yul\":7687:7691   */\n  0x20\n    /* \"#utility.yul\":7679:7685   */\n  dup7\n    /* \"#utility.yul\":7675:7692   */\n  add\n    /* \"#utility.yul\":7616:7706   */\n  tag_42\n  jump\t// in\ntag_138:\n    /* \"#utility.yul\":7607:7706   */\n  swap2\n  pop\n    /* \"#utility.yul\":7430:7712   */\n  pop\n    /* \"#utility.yul\":7357:7712   */\n  swap3\n  swap2\n  pop\n  pop\n  jump\t// out\n    /* \"#utility.yul\":7718:7840   */\ntag_44:\n    /* \"#utility.yul\":7791:7815   */\n  tag_140\n    /* \"#utility.yul\":7809:7814   */\n  dup2\n    /* \"#utility.yul\":7791:7815   */\n  tag_20\n  jump\t// in\ntag_140:\n    /* \"#utility.yul\":7784:7789   */\n  dup2\n    /* \"#utility.yul\":7781:7816   */\n  eq\n    /* \"#utility.yul\":7771:7834   */\n  tag_141\n  jumpi\n    /* \"#utility.yul\":7830:7831   */\n  0x00\n    /* \"#utility.yul\":7827:7828   */\n  dup1\n    /* \"#utility.yul\":7820:7832   */\n  revert\n    /* \"#utility.yul\":7771:7834   */\ntag_141:\n    /* \"#utility.yul\":7718:7840   */\n  pop\n  jump\t// out\n    /* \"#utility.yul\":7846:7989   */\ntag_45:\n    /* \"#utility.yul\":7903:7908   */\n  0x00\n    /* \"#utility.yul\":7934:7940   */\n  dup2\n    /* \"#utility.yul\":7928:7941   */\n  mload\n    /* \"#utility.yul\":7919:7941   */\n  swap1\n  pop\n    /* \"#utility.yul\":7950:7983   */\n  tag_143\n    /* \"#utility.yul\":7977:7982   */\n  dup2\n    /* \"#utility.yul\":7950:7983   */\n  tag_44\n  jump\t// in\ntag_143:\n    /* \"#utility.yul\":7846:7989   */\n  swap3\n  swap2\n  pop\n  pop\n  jump\t// out\n    /* \"#utility.yul\":7995:9334   */\ntag_5:\n    /* \"#utility.yul\":8122:8128   */\n  0x00\n    /* \"#utility.yul\":8130:8136   */\n  dup1\n    /* \"#utility.yul\":8138:8144   */\n  0x00\n    /* \"#utility.yul\":8146:8152   */\n  dup1\n    /* \"#utility.yul\":8195:8198   */\n  0x80\n    /* \"#utility.yul\":8183:8192   */\n  dup6\n    /* \"#utility.yul\":8174:8181   */\n  dup8\n    /* \"#utility.yul\":8170:8193   */\n  sub\n    /* \"#utility.yul\":8166:8199   */\n  slt\n    /* \"#utility.yul\":8163:8283   */\n  iszero\n  tag_145\n  jumpi\n    /* \"#utility.yul\":8202:8281   */\n  tag_146\n  tag_33\n  jump\t// in\ntag_146:\n    /* \"#utility.yul\":8163:8283   */\ntag_145:\n    /* \"#utility.yul\":8343:8344   */\n  0x00\n    /* \"#utility.yul\":8332:8341   */\n  dup6\n    /* \"#utility.yul\":8328:8345   */\n  add\n    /* \"#utility.yul\":8322:8346   */\n  mload\n    /* \"#utility.yul\":8373:8391   */\n  0xffffffffffffffff\n    /* \"#utility.yul\":8365:8371   */\n  dup2\n    /* \"#utility.yul\":8362:8392   */\n  gt\n    /* \"#utility.yul\":8359:8476   */\n  iszero\n  tag_147\n  jumpi\n    /* \"#utility.yul\":8395:8474   */\n  tag_148\n  tag_34\n  jump\t// in\ntag_148:\n    /* \"#utility.yul\":8359:8476   */\ntag_147:\n    /* \"#utility.yul\":8500:8574   */\n  tag_149\n    /* \"#utility.yul\":8566:8573   */\n  dup8\n    /* \"#utility.yul\":8557:8563   */\n  dup3\n    /* \"#utility.yul\":8546:8555   */\n  dup9\n    /* \"#utility.yul\":8542:8564   */\n  add\n    /* \"#utility.yul\":8500:8574   */\n  tag_43\n  jump\t// in\ntag_149:\n    /* \"#utility.yul\":8490:8574   */\n  swap5\n  pop\n    /* \"#utility.yul\":8293:8584   */\n  pop\n    /* \"#utility.yul\":8644:8646   */\n  0x20\n    /* \"#utility.yul\":8633:8642   */\n  dup6\n    /* \"#utility.yul\":8629:8647   */\n  add\n    /* \"#utility.yul\":8623:8648   */\n  mload\n    /* \"#utility.yul\":8675:8693   */\n  0xffffffffffffffff\n    /* \"#utility.yul\":8667:8673   */\n  dup2\n    /* \"#utility.yul\":8664:8694   */\n  gt\n    /* \"#utility.yul\":8661:8778   */\n  iszero\n  tag_150\n  jumpi\n    /* \"#utility.yul\":8697:8776   */\n  tag_151\n  tag_34\n  jump\t// in\ntag_151:\n    /* \"#utility.yul\":8661:8778   */\ntag_150:\n    /* \"#utility.yul\":8802:8876   */\n  tag_152\n    /* \"#utility.yul\":8868:8875   */\n  dup8\n    /* \"#utility.yul\":8859:8865   */\n  dup3\n    /* \"#utility.yul\":8848:8857   */\n  dup9\n    /* \"#utility.yul\":8844:8866   */\n  add\n    /* \"#utility.yul\":8802:8876   */\n  tag_43\n  jump\t// in\ntag_152:\n    /* \"#utility.yul\":8792:8876   */\n  swap4\n  pop\n    /* \"#utility.yul\":8594:8886   */\n  pop\n    /* \"#utility.yul\":8946:8948   */\n  0x40\n    /* \"#utility.yul\":8935:8944   */\n  dup6\n    /* \"#utility.yul\":8931:8949   */\n  add\n    /* \"#utility.yul\":8925:8950   */\n  mload\n    /* \"#utility.yul\":8977:8995   */\n  0xffffffffffffffff\n    /* \"#utility.yul\":8969:8975   */\n  dup2\n    /* \"#utility.yul\":8966:8996   */\n  gt\n    /* \"#utility.yul\":8963:9080   */\n  iszero\n  tag_153\n  jumpi\n    /* \"#utility.yul\":8999:9078   */\n  tag_154\n  tag_34\n  jump\t// in\ntag_154:\n    /* \"#utility.yul\":8963:9080   */\ntag_153:\n    /* \"#utility.yul\":9104:9178   */\n  tag_155\n    /* \"#utility.yul\":9170:9177   */\n  dup8\n    /* \"#utility.yul\":9161:9167   */\n  dup3\n    /* \"#utility.yul\":9150:9159   */\n  dup9\n    /* \"#utility.yul\":9146:9168   */\n  add\n    /* \"#utility.yul\":9104:9178   */\n  tag_43\n  jump\t// in\ntag_155:\n    /* \"#utility.yul\":9094:9178   */\n  swap3\n  pop\n    /* \"#utility.yul\":8896:9188   */\n  pop\n    /* \"#utility.yul\":9227:9229   */\n  0x60\n    /* \"#utility.yul\":9253:9317   */\n  tag_156\n    /* \"#utility.yul\":9309:9316   */\n  dup8\n    /* \"#utility.yul\":9300:9306   */\n  dup3\n    /* \"#utility.yul\":9289:9298   */\n  dup9\n    /* \"#utility.yul\":9285:9307   */\n  add\n    /* \"#utility.yul\":9253:9317   */\n  tag_45\n  jump\t// in\ntag_156:\n    /* \"#utility.yul\":9243:9317   */\n  swap2\n  pop\n    /* \"#utility.yul\":9198:9327   */\n  pop\n    /* \"#utility.yul\":7995:9334   */\n  swap3\n  swap6\n  swap2\n  swap5\n  pop\n  swap3\n  pop\n  jump\t// out\n    /* \"contracts/project/CrowdFunding2.sol\":74:1403  contract CrowdFunding {... */\ntag_11:\n  dataSize(sub_0)\n  dup1\n  dataOffset(sub_0)\n  0x00\n  codecopy\n  0x00\n  return\nstop\n\nsub_0: assembly {\n        /* \"contracts/project/CrowdFunding2.sol\":74:1403  contract CrowdFunding {... */\n      mstore(0x40, 0x80)\n      jumpi(tag_1, lt(calldatasize, 0x04))\n      shr(0xe0, calldataload(0x00))\n      dup1\n      0xaf640d0f\n      gt\n      tag_11\n      jumpi\n      dup1\n      0xaf640d0f\n      eq\n      tag_6\n      jumpi\n      dup1\n      0xb767050d\n      eq\n      tag_7\n      jumpi\n      dup1\n      0xc19d93fb\n      eq\n      tag_8\n      jumpi\n      dup1\n      0xc89f2ce4\n      eq\n      tag_9\n      jumpi\n      dup1\n      0xd63dc661\n      eq\n      tag_10\n      jumpi\n      jump(tag_1)\n    tag_11:\n      dup1\n      0x06fdde03\n      eq\n      tag_2\n      jumpi\n      dup1\n      0x7284e416\n      eq\n      tag_3\n      jumpi\n      dup1\n      0x9e7b08d5\n      eq\n      tag_4\n      jumpi\n      dup1\n      0xa6c3e6b9\n      eq\n      tag_5\n      jumpi\n    tag_1:\n      0x00\n      dup1\n      revert\n        /* \"contracts/project/CrowdFunding2.sol\":126:144  string public name */\n    tag_2:\n      callvalue\n      dup1\n      iszero\n      tag_12\n      jumpi\n      0x00\n      dup1\n      revert\n    tag_12:\n      pop\n      tag_13\n      tag_14\n      jump\t// in\n    tag_13:\n      mload(0x40)\n      tag_15\n      swap2\n      swap1\n      tag_16\n      jump\t// in\n    tag_15:\n      mload(0x40)\n      dup1\n      swap2\n      sub\n      swap1\n      return\n        /* \"contracts/project/CrowdFunding2.sol\":151:176  string public description */\n    tag_3:\n      callvalue\n      dup1\n      iszero\n      tag_17\n      jumpi\n      0x00\n      dup1\n      revert\n    tag_17:\n      pop\n      tag_18\n      tag_19\n      jump\t// in\n    tag_18:\n      mload(0x40)\n      tag_20\n      swap2\n      swap1\n      tag_16\n      jump\t// in\n    tag_20:\n      mload(0x40)\n      dup1\n      swap2\n      sub\n      swap1\n      return\n        /* \"contracts/project/CrowdFunding2.sol\":283:313  uint256 public fundraisingGoal */\n    tag_4:\n      callvalue\n      dup1\n      iszero\n      tag_21\n      jumpi\n      0x00\n      dup1\n      revert\n    tag_21:\n      pop\n      tag_22\n      tag_23\n      jump\t// in\n    tag_22:\n      mload(0x40)\n      tag_24\n      swap2\n      swap1\n      tag_25\n      jump\t// in\n    tag_24:\n      mload(0x40)\n      dup1\n      swap2\n      sub\n      swap1\n      return\n        /* \"contracts/project/CrowdFunding2.sol\":183:212  address payable public author */\n    tag_5:\n      callvalue\n      dup1\n      iszero\n      tag_26\n      jumpi\n      0x00\n      dup1\n      revert\n    tag_26:\n      pop\n      tag_27\n      tag_28\n      jump\t// in\n    tag_27:\n      mload(0x40)\n      tag_29\n      swap2\n      swap1\n      tag_30\n      jump\t// in\n    tag_29:\n      mload(0x40)\n      dup1\n      swap2\n      sub\n      swap1\n      return\n        /* \"contracts/project/CrowdFunding2.sol\":103:119  string public id */\n    tag_6:\n      callvalue\n      dup1\n      iszero\n      tag_31\n      jumpi\n      0x00\n      dup1\n      revert\n    tag_31:\n      pop\n      tag_32\n      tag_33\n      jump\t// in\n    tag_32:\n      mload(0x40)\n      tag_34\n      swap2\n      swap1\n      tag_16\n      jump\t// in\n    tag_34:\n      mload(0x40)\n      dup1\n      swap2\n      sub\n      swap1\n      return\n        /* \"contracts/project/CrowdFunding2.sol\":1246:1400  function changeProjectState(string calldata newState) public isAuthor {... */\n    tag_7:\n      callvalue\n      dup1\n      iszero\n      tag_35\n      jumpi\n      0x00\n      dup1\n      revert\n    tag_35:\n      pop\n      tag_36\n      0x04\n      dup1\n      calldatasize\n      sub\n      dup2\n      add\n      swap1\n      tag_37\n      swap2\n      swap1\n      tag_38\n      jump\t// in\n    tag_37:\n      tag_39\n      jump\t// in\n    tag_36:\n      stop\n        /* \"contracts/project/CrowdFunding2.sol\":219:249  string public state = \"Opened\" */\n    tag_8:\n      callvalue\n      dup1\n      iszero\n      tag_40\n      jumpi\n      0x00\n      dup1\n      revert\n    tag_40:\n      pop\n      tag_41\n      tag_42\n      jump\t// in\n    tag_41:\n      mload(0x40)\n      tag_43\n      swap2\n      swap1\n      tag_16\n      jump\t// in\n    tag_43:\n      mload(0x40)\n      dup1\n      swap2\n      sub\n      swap1\n      return\n        /* \"contracts/project/CrowdFunding2.sol\":256:276  uint256 public funds */\n    tag_9:\n      callvalue\n      dup1\n      iszero\n      tag_44\n      jumpi\n      0x00\n      dup1\n      revert\n    tag_44:\n      pop\n      tag_45\n      tag_46\n      jump\t// in\n    tag_45:\n      mload(0x40)\n      tag_47\n      swap2\n      swap1\n      tag_25\n      jump\t// in\n    tag_47:\n      mload(0x40)\n      dup1\n      swap2\n      sub\n      swap1\n      return\n        /* \"contracts/project/CrowdFunding2.sol\":1070:1238  function fundProject() public payable isNotAuthor {... */\n    tag_10:\n      tag_48\n      tag_49\n      jump\t// in\n    tag_48:\n      stop\n        /* \"contracts/project/CrowdFunding2.sol\":126:144  string public name */\n    tag_14:\n      0x01\n      dup1\n      sload\n      tag_50\n      swap1\n      tag_51\n      jump\t// in\n    tag_50:\n      dup1\n      0x1f\n      add\n      0x20\n      dup1\n      swap2\n      div\n      mul\n      0x20\n      add\n      mload(0x40)\n      swap1\n      dup2\n      add\n      0x40\n      mstore\n      dup1\n      swap3\n      swap2\n      swap1\n      dup2\n      dup2\n      mstore\n      0x20\n      add\n      dup3\n      dup1\n      sload\n      tag_52\n      swap1\n      tag_51\n      jump\t// in\n    tag_52:\n      dup1\n      iszero\n      tag_53\n      jumpi\n      dup1\n      0x1f\n      lt\n      tag_54\n      jumpi\n      0x0100\n      dup1\n      dup4\n      sload\n      div\n      mul\n      dup4\n      mstore\n      swap2\n      0x20\n      add\n      swap2\n      jump(tag_53)\n    tag_54:\n      dup3\n      add\n      swap2\n      swap1\n      0x00\n      mstore\n      keccak256(0x00, 0x20)\n      swap1\n    tag_55:\n      dup2\n      sload\n      dup2\n      mstore\n      swap1\n      0x01\n      add\n      swap1\n      0x20\n      add\n      dup1\n      dup4\n      gt\n      tag_55\n      jumpi\n      dup3\n      swap1\n      sub\n      0x1f\n      and\n      dup3\n      add\n      swap2\n    tag_53:\n      pop\n      pop\n      pop\n      pop\n      pop\n      dup2\n      jump\t// out\n        /* \"contracts/project/CrowdFunding2.sol\":151:176  string public description */\n    tag_19:\n      0x02\n      dup1\n      sload\n      tag_56\n      swap1\n      tag_51\n      jump\t// in\n    tag_56:\n      dup1\n      0x1f\n      add\n      0x20\n      dup1\n      swap2\n      div\n      mul\n      0x20\n      add\n      mload(0x40)\n      swap1\n      dup2\n      add\n      0x40\n      mstore\n      dup1\n      swap3\n      swap2\n      swap1\n      dup2\n      dup2\n      mstore\n      0x20\n      add\n      dup3\n      dup1\n      sload\n      tag_57\n      swap1\n      tag_51\n      jump\t// in\n    tag_57:\n      dup1\n      iszero\n      tag_58\n      jumpi\n      dup1\n      0x1f\n      lt\n      tag_59\n      jumpi\n      0x0100\n      dup1\n      dup4\n      sload\n      div\n      mul\n      dup4\n      mstore\n      swap2\n      0x20\n      add\n      swap2\n      jump(tag_58)\n    tag_59:\n      dup3\n      add\n      swap2\n      swap1\n      0x00\n      mstore\n      keccak256(0x00, 0x20)\n      swap1\n    tag_60:\n      dup2\n      sload\n      dup2\n      mstore\n      swap1\n      0x01\n      add\n      swap1\n      0x20\n      add\n      dup1\n      dup4\n      gt\n      tag_60\n      jumpi\n      dup3\n      swap1\n      sub\n      0x1f\n      and\n      dup3\n      add\n      swap2\n    tag_58:\n      pop\n      pop\n      pop\n      pop\n      pop\n      dup2\n      jump\t// out\n        /* \"contracts/project/CrowdFunding2.sol\":283:313  uint256 public fundraisingGoal */\n    tag_23:\n      sload(0x06)\n      dup2\n      jump\t// out\n        /* \"contracts/project/CrowdFunding2.sol\":183:212  address payable public author */\n    tag_28:\n      0x03\n      0x00\n      swap1\n      sload\n      swap1\n      0x0100\n      exp\n      swap1\n      div\n      0xffffffffffffffffffffffffffffffffffffffff\n      and\n      dup2\n      jump\t// out\n        /* \"contracts/project/CrowdFunding2.sol\":103:119  string public id */\n    tag_33:\n      0x00\n      dup1\n      sload\n      tag_61\n      swap1\n      tag_51\n      jump\t// in\n    tag_61:\n      dup1\n      0x1f\n      add\n      0x20\n      dup1\n      swap2\n      div\n      mul\n      0x20\n      add\n      mload(0x40)\n      swap1\n      dup2\n      add\n      0x40\n      mstore\n      dup1\n      swap3\n      swap2\n      swap1\n      dup2\n      dup2\n      mstore\n      0x20\n      add\n      dup3\n      dup1\n      sload\n      tag_62\n      swap1\n      tag_51\n      jump\t// in\n    tag_62:\n      dup1\n      iszero\n      tag_63\n      jumpi\n      dup1\n      0x1f\n      lt\n      tag_64\n      jumpi\n      0x0100\n      dup1\n      dup4\n      sload\n      div\n      mul\n      dup4\n      mstore\n      swap2\n      0x20\n      add\n      swap2\n      jump(tag_63)\n    tag_64:\n      dup3\n      add\n      swap2\n      swap1\n      0x00\n      mstore\n      keccak256(0x00, 0x20)\n      swap1\n    tag_65:\n      dup2\n      sload\n      dup2\n      mstore\n      swap1\n      0x01\n      add\n      swap1\n      0x20\n      add\n      dup1\n      dup4\n      gt\n      tag_65\n      jumpi\n      dup3\n      swap1\n      sub\n      0x1f\n      and\n      dup3\n      add\n      swap2\n    tag_63:\n      pop\n      pop\n      pop\n      pop\n      pop\n      dup2\n      jump\t// out\n        /* \"contracts/project/CrowdFunding2.sol\":1246:1400  function changeProjectState(string calldata newState) public isAuthor {... */\n    tag_39:\n        /* \"contracts/project/CrowdFunding2.sol\":819:829  msg.sender */\n      caller\n        /* \"contracts/project/CrowdFunding2.sol\":809:829  author == msg.sender */\n      0xffffffffffffffffffffffffffffffffffffffff\n      and\n        /* \"contracts/project/CrowdFunding2.sol\":809:815  author */\n      0x03\n      0x00\n      swap1\n      sload\n      swap1\n      0x0100\n      exp\n      swap1\n      div\n      0xffffffffffffffffffffffffffffffffffffffff\n      and\n        /* \"contracts/project/CrowdFunding2.sol\":809:829  author == msg.sender */\n      0xffffffffffffffffffffffffffffffffffffffff\n      and\n      eq\n        /* \"contracts/project/CrowdFunding2.sol\":801:867  require(author == msg.sender, \"You need to be the project author\") */\n      tag_67\n      jumpi\n      mload(0x40)\n      0x08c379a000000000000000000000000000000000000000000000000000000000\n      dup2\n      mstore\n      0x04\n      add\n      tag_68\n      swap1\n      tag_69\n      jump\t// in\n    tag_68:\n      mload(0x40)\n      dup1\n      swap2\n      sub\n      swap1\n      revert\n    tag_67:\n        /* \"contracts/project/CrowdFunding2.sol\":1335:1343  newState */\n      dup2\n      dup2\n        /* \"contracts/project/CrowdFunding2.sol\":1327:1332  state */\n      0x04\n        /* \"contracts/project/CrowdFunding2.sol\":1327:1343  state = newState */\n      swap2\n      dup3\n      tag_71\n      swap3\n      swap2\n      swap1\n      tag_72\n      jump\t// in\n    tag_71:\n      pop\n        /* \"contracts/project/CrowdFunding2.sol\":1359:1392  ProjectStateChanged(id, newState) */\n      0x1bef70a18185328210f7b8cc166c868397812fd89b3e7312515e90afdbb9020c\n        /* \"contracts/project/CrowdFunding2.sol\":1379:1381  id */\n      0x00\n        /* \"contracts/project/CrowdFunding2.sol\":1383:1391  newState */\n      dup4\n      dup4\n        /* \"contracts/project/CrowdFunding2.sol\":1359:1392  ProjectStateChanged(id, newState) */\n      mload(0x40)\n      tag_73\n      swap4\n      swap3\n      swap2\n      swap1\n      tag_74\n      jump\t// in\n    tag_73:\n      mload(0x40)\n      dup1\n      swap2\n      sub\n      swap1\n      log1\n        /* \"contracts/project/CrowdFunding2.sol\":1246:1400  function changeProjectState(string calldata newState) public isAuthor {... */\n      pop\n      pop\n      jump\t// out\n        /* \"contracts/project/CrowdFunding2.sol\":219:249  string public state = \"Opened\" */\n    tag_42:\n      0x04\n      dup1\n      sload\n      tag_75\n      swap1\n      tag_51\n      jump\t// in\n    tag_75:\n      dup1\n      0x1f\n      add\n      0x20\n      dup1\n      swap2\n      div\n      mul\n      0x20\n      add\n      mload(0x40)\n      swap1\n      dup2\n      add\n      0x40\n      mstore\n      dup1\n      swap3\n      swap2\n      swap1\n      dup2\n      dup2\n      mstore\n      0x20\n      add\n      dup3\n      dup1\n      sload\n      tag_76\n      swap1\n      tag_51\n      jump\t// in\n    tag_76:\n      dup1\n      iszero\n      tag_77\n      jumpi\n      dup1\n      0x1f\n      lt\n      tag_78\n      jumpi\n      0x0100\n      dup1\n      dup4\n      sload\n      div\n      mul\n      dup4\n      mstore\n      swap2\n      0x20\n      add\n      swap2\n      jump(tag_77)\n    tag_78:\n      dup3\n      add\n      swap2\n      swap1\n      0x00\n      mstore\n      keccak256(0x00, 0x20)\n      swap1\n    tag_79:\n      dup2\n      sload\n      dup2\n      mstore\n      swap1\n      0x01\n      add\n      swap1\n      0x20\n      add\n      dup1\n      dup4\n      gt\n      tag_79\n      jumpi\n      dup3\n      swap1\n      sub\n      0x1f\n      and\n      dup3\n      add\n      swap2\n    tag_77:\n      pop\n      pop\n      pop\n      pop\n      pop\n      dup2\n      jump\t// out\n        /* \"contracts/project/CrowdFunding2.sol\":256:276  uint256 public funds */\n    tag_46:\n      sload(0x05)\n      dup2\n      jump\t// out\n        /* \"contracts/project/CrowdFunding2.sol\":1070:1238  function fundProject() public payable isNotAuthor {... */\n    tag_49:\n        /* \"contracts/project/CrowdFunding2.sol\":961:971  msg.sender */\n      caller\n        /* \"contracts/project/CrowdFunding2.sol\":951:971  author != msg.sender */\n      0xffffffffffffffffffffffffffffffffffffffff\n      and\n        /* \"contracts/project/CrowdFunding2.sol\":951:957  author */\n      0x03\n      0x00\n      swap1\n      sload\n      swap1\n      0x0100\n      exp\n      swap1\n      div\n      0xffffffffffffffffffffffffffffffffffffffff\n      and\n        /* \"contracts/project/CrowdFunding2.sol\":951:971  author != msg.sender */\n      0xffffffffffffffffffffffffffffffffffffffff\n      and\n      sub\n        /* \"contracts/project/CrowdFunding2.sol\":929:1042  require(... */\n      tag_81\n      jumpi\n      mload(0x40)\n      0x08c379a000000000000000000000000000000000000000000000000000000000\n      dup2\n      mstore\n      0x04\n      add\n      tag_82\n      swap1\n      tag_83\n      jump\t// in\n    tag_82:\n      mload(0x40)\n      dup1\n      swap2\n      sub\n      swap1\n      revert\n    tag_81:\n        /* \"contracts/project/CrowdFunding2.sol\":1131:1137  author */\n      0x03\n      0x00\n      swap1\n      sload\n      swap1\n      0x0100\n      exp\n      swap1\n      div\n      0xffffffffffffffffffffffffffffffffffffffff\n      and\n        /* \"contracts/project/CrowdFunding2.sol\":1131:1146  author.transfer */\n      0xffffffffffffffffffffffffffffffffffffffff\n      and\n        /* \"contracts/project/CrowdFunding2.sol\":1131:1157  author.transfer(msg.value) */\n      0x08fc\n        /* \"contracts/project/CrowdFunding2.sol\":1147:1156  msg.value */\n      callvalue\n        /* \"contracts/project/CrowdFunding2.sol\":1131:1157  author.transfer(msg.value) */\n      swap1\n      dup2\n      iszero\n      mul\n      swap1\n      mload(0x40)\n      0x00\n      mload(0x40)\n      dup1\n      dup4\n      sub\n      dup2\n      dup6\n      dup9\n      dup9\n      call\n      swap4\n      pop\n      pop\n      pop\n      pop\n      iszero\n      dup1\n      iszero\n      tag_86\n      jumpi\n      returndatasize\n      0x00\n      dup1\n      returndatacopy\n      revert(0x00, returndatasize)\n    tag_86:\n      pop\n        /* \"contracts/project/CrowdFunding2.sol\":1177:1186  msg.value */\n      callvalue\n        /* \"contracts/project/CrowdFunding2.sol\":1168:1173  funds */\n      0x05\n      0x00\n        /* \"contracts/project/CrowdFunding2.sol\":1168:1186  funds += msg.value */\n      dup3\n      dup3\n      sload\n      tag_87\n      swap2\n      swap1\n      tag_88\n      jump\t// in\n    tag_87:\n      swap3\n      pop\n      pop\n      dup2\n      swap1\n      sstore\n      pop\n        /* \"contracts/project/CrowdFunding2.sol\":1202:1230  ProjectFunded(id, msg.value) */\n      0x925c00924682e835f48a31e5b83cb323934f40a811c5a8f44a662915035033c6\n        /* \"contracts/project/CrowdFunding2.sol\":1216:1218  id */\n      0x00\n        /* \"contracts/project/CrowdFunding2.sol\":1220:1229  msg.value */\n      callvalue\n        /* \"contracts/project/CrowdFunding2.sol\":1202:1230  ProjectFunded(id, msg.value) */\n      mload(0x40)\n      tag_89\n      swap3\n      swap2\n      swap1\n      tag_90\n      jump\t// in\n    tag_89:\n      mload(0x40)\n      dup1\n      swap2\n      sub\n      swap1\n      log1\n        /* \"contracts/project/CrowdFunding2.sol\":1070:1238  function fundProject() public payable isNotAuthor {... */\n      jump\t// out\n        /* \"#utility.yul\":7:106   */\n    tag_91:\n        /* \"#utility.yul\":59:65   */\n      0x00\n        /* \"#utility.yul\":93:98   */\n      dup2\n        /* \"#utility.yul\":87:99   */\n      mload\n        /* \"#utility.yul\":77:99   */\n      swap1\n      pop\n        /* \"#utility.yul\":7:106   */\n      swap2\n      swap1\n      pop\n      jump\t// out\n        /* \"#utility.yul\":112:281   */\n    tag_92:\n        /* \"#utility.yul\":196:207   */\n      0x00\n        /* \"#utility.yul\":230:236   */\n      dup3\n        /* \"#utility.yul\":225:228   */\n      dup3\n        /* \"#utility.yul\":218:237   */\n      mstore\n        /* \"#utility.yul\":270:274   */\n      0x20\n        /* \"#utility.yul\":265:268   */\n      dup3\n        /* \"#utility.yul\":261:275   */\n      add\n        /* \"#utility.yul\":246:275   */\n      swap1\n      pop\n        /* \"#utility.yul\":112:281   */\n      swap3\n      swap2\n      pop\n      pop\n      jump\t// out\n        /* \"#utility.yul\":287:533   */\n    tag_93:\n        /* \"#utility.yul\":368:369   */\n      0x00\n        /* \"#utility.yul\":378:491   */\n    tag_138:\n        /* \"#utility.yul\":392:398   */\n      dup4\n        /* \"#utility.yul\":389:390   */\n      dup2\n        /* \"#utility.yul\":386:399   */\n      lt\n        /* \"#utility.yul\":378:491   */\n      iszero\n      tag_140\n      jumpi\n        /* \"#utility.yul\":477:478   */\n      dup1\n        /* \"#utility.yul\":472:475   */\n      dup3\n        /* \"#utility.yul\":468:479   */\n      add\n        /* \"#utility.yul\":462:480   */\n      mload\n        /* \"#utility.yul\":458:459   */\n      dup2\n        /* \"#utility.yul\":453:456   */\n      dup5\n        /* \"#utility.yul\":449:460   */\n      add\n        /* \"#utility.yul\":442:481   */\n      mstore\n        /* \"#utility.yul\":414:416   */\n      0x20\n        /* \"#utility.yul\":411:412   */\n      dup2\n        /* \"#utility.yul\":407:417   */\n      add\n        /* \"#utility.yul\":402:417   */\n      swap1\n      pop\n        /* \"#utility.yul\":378:491   */\n      jump(tag_138)\n    tag_140:\n        /* \"#utility.yul\":525:526   */\n      0x00\n        /* \"#utility.yul\":516:522   */\n      dup5\n        /* \"#utility.yul\":511:514   */\n      dup5\n        /* \"#utility.yul\":507:523   */\n      add\n        /* \"#utility.yul\":500:527   */\n      mstore\n        /* \"#utility.yul\":349:533   */\n      pop\n        /* \"#utility.yul\":287:533   */\n      pop\n      pop\n      pop\n      jump\t// out\n        /* \"#utility.yul\":539:641   */\n    tag_94:\n        /* \"#utility.yul\":580:586   */\n      0x00\n        /* \"#utility.yul\":631:633   */\n      0x1f\n        /* \"#utility.yul\":627:634   */\n      not\n        /* \"#utility.yul\":622:624   */\n      0x1f\n        /* \"#utility.yul\":615:620   */\n      dup4\n        /* \"#utility.yul\":611:625   */\n      add\n        /* \"#utility.yul\":607:635   */\n      and\n        /* \"#utility.yul\":597:635   */\n      swap1\n      pop\n        /* \"#utility.yul\":539:641   */\n      swap2\n      swap1\n      pop\n      jump\t// out\n        /* \"#utility.yul\":647:1024   */\n    tag_95:\n        /* \"#utility.yul\":735:738   */\n      0x00\n        /* \"#utility.yul\":763:802   */\n      tag_143\n        /* \"#utility.yul\":796:801   */\n      dup3\n        /* \"#utility.yul\":763:802   */\n      tag_91\n      jump\t// in\n    tag_143:\n        /* \"#utility.yul\":818:889   */\n      tag_144\n        /* \"#utility.yul\":882:888   */\n      dup2\n        /* \"#utility.yul\":877:880   */\n      dup6\n        /* \"#utility.yul\":818:889   */\n      tag_92\n      jump\t// in\n    tag_144:\n        /* \"#utility.yul\":811:889   */\n      swap4\n      pop\n        /* \"#utility.yul\":898:963   */\n      tag_145\n        /* \"#utility.yul\":956:962   */\n      dup2\n        /* \"#utility.yul\":951:954   */\n      dup6\n        /* \"#utility.yul\":944:948   */\n      0x20\n        /* \"#utility.yul\":937:942   */\n      dup7\n        /* \"#utility.yul\":933:949   */\n      add\n        /* \"#utility.yul\":898:963   */\n      tag_93\n      jump\t// in\n    tag_145:\n        /* \"#utility.yul\":988:1017   */\n      tag_146\n        /* \"#utility.yul\":1010:1016   */\n      dup2\n        /* \"#utility.yul\":988:1017   */\n      tag_94\n      jump\t// in\n    tag_146:\n        /* \"#utility.yul\":983:986   */\n      dup5\n        /* \"#utility.yul\":979:1018   */\n      add\n        /* \"#utility.yul\":972:1018   */\n      swap2\n      pop\n        /* \"#utility.yul\":739:1024   */\n      pop\n        /* \"#utility.yul\":647:1024   */\n      swap3\n      swap2\n      pop\n      pop\n      jump\t// out\n        /* \"#utility.yul\":1030:1343   */\n    tag_16:\n        /* \"#utility.yul\":1143:1147   */\n      0x00\n        /* \"#utility.yul\":1181:1183   */\n      0x20\n        /* \"#utility.yul\":1170:1179   */\n      dup3\n        /* \"#utility.yul\":1166:1184   */\n      add\n        /* \"#utility.yul\":1158:1184   */\n      swap1\n      pop\n        /* \"#utility.yul\":1230:1239   */\n      dup2\n        /* \"#utility.yul\":1224:1228   */\n      dup2\n        /* \"#utility.yul\":1220:1240   */\n      sub\n        /* \"#utility.yul\":1216:1217   */\n      0x00\n        /* \"#utility.yul\":1205:1214   */\n      dup4\n        /* \"#utility.yul\":1201:1218   */\n      add\n        /* \"#utility.yul\":1194:1241   */\n      mstore\n        /* \"#utility.yul\":1258:1336   */\n      tag_148\n        /* \"#utility.yul\":1331:1335   */\n      dup2\n        /* \"#utility.yul\":1322:1328   */\n      dup5\n        /* \"#utility.yul\":1258:1336   */\n      tag_95\n      jump\t// in\n    tag_148:\n        /* \"#utility.yul\":1250:1336   */\n      swap1\n      pop\n        /* \"#utility.yul\":1030:1343   */\n      swap3\n      swap2\n      pop\n      pop\n      jump\t// out\n        /* \"#utility.yul\":1349:1426   */\n    tag_96:\n        /* \"#utility.yul\":1386:1393   */\n      0x00\n        /* \"#utility.yul\":1415:1420   */\n      dup2\n        /* \"#utility.yul\":1404:1420   */\n      swap1\n      pop\n        /* \"#utility.yul\":1349:1426   */\n      swap2\n      swap1\n      pop\n      jump\t// out\n        /* \"#utility.yul\":1432:1550   */\n    tag_97:\n        /* \"#utility.yul\":1519:1543   */\n      tag_151\n        /* \"#utility.yul\":1537:1542   */\n      dup2\n        /* \"#utility.yul\":1519:1543   */\n      tag_96\n      jump\t// in\n    tag_151:\n        /* \"#utility.yul\":1514:1517   */\n      dup3\n        /* \"#utility.yul\":1507:1544   */\n      mstore\n        /* \"#utility.yul\":1432:1550   */\n      pop\n      pop\n      jump\t// out\n        /* \"#utility.yul\":1556:1778   */\n    tag_25:\n        /* \"#utility.yul\":1649:1653   */\n      0x00\n        /* \"#utility.yul\":1687:1689   */\n      0x20\n        /* \"#utility.yul\":1676:1685   */\n      dup3\n        /* \"#utility.yul\":1672:1690   */\n      add\n        /* \"#utility.yul\":1664:1690   */\n      swap1\n      pop\n        /* \"#utility.yul\":1700:1771   */\n      tag_153\n        /* \"#utility.yul\":1768:1769   */\n      0x00\n        /* \"#utility.yul\":1757:1766   */\n      dup4\n        /* \"#utility.yul\":1753:1770   */\n      add\n        /* \"#utility.yul\":1744:1750   */\n      dup5\n        /* \"#utility.yul\":1700:1771   */\n      tag_97\n      jump\t// in\n    tag_153:\n        /* \"#utility.yul\":1556:1778   */\n      swap3\n      swap2\n      pop\n      pop\n      jump\t// out\n        /* \"#utility.yul\":1784:1910   */\n    tag_98:\n        /* \"#utility.yul\":1821:1828   */\n      0x00\n        /* \"#utility.yul\":1861:1903   */\n      0xffffffffffffffffffffffffffffffffffffffff\n        /* \"#utility.yul\":1854:1859   */\n      dup3\n        /* \"#utility.yul\":1850:1904   */\n      and\n        /* \"#utility.yul\":1839:1904   */\n      swap1\n      pop\n        /* \"#utility.yul\":1784:1910   */\n      swap2\n      swap1\n      pop\n      jump\t// out\n        /* \"#utility.yul\":1916:2020   */\n    tag_99:\n        /* \"#utility.yul\":1961:1968   */\n      0x00\n        /* \"#utility.yul\":1990:2014   */\n      tag_156\n        /* \"#utility.yul\":2008:2013   */\n      dup3\n        /* \"#utility.yul\":1990:2014   */\n      tag_98\n      jump\t// in\n    tag_156:\n        /* \"#utility.yul\":1979:2014   */\n      swap1\n      pop\n        /* \"#utility.yul\":1916:2020   */\n      swap2\n      swap1\n      pop\n      jump\t// out\n        /* \"#utility.yul\":2026:2168   */\n    tag_100:\n        /* \"#utility.yul\":2129:2161   */\n      tag_158\n        /* \"#utility.yul\":2155:2160   */\n      dup2\n        /* \"#utility.yul\":2129:2161   */\n      tag_99\n      jump\t// in\n    tag_158:\n        /* \"#utility.yul\":2124:2127   */\n      dup3\n        /* \"#utility.yul\":2117:2162   */\n      mstore\n        /* \"#utility.yul\":2026:2168   */\n      pop\n      pop\n      jump\t// out\n        /* \"#utility.yul\":2174:2428   */\n    tag_30:\n        /* \"#utility.yul\":2283:2287   */\n      0x00\n        /* \"#utility.yul\":2321:2323   */\n      0x20\n        /* \"#utility.yul\":2310:2319   */\n      dup3\n        /* \"#utility.yul\":2306:2324   */\n      add\n        /* \"#utility.yul\":2298:2324   */\n      swap1\n      pop\n        /* \"#utility.yul\":2334:2421   */\n      tag_160\n        /* \"#utility.yul\":2418:2419   */\n      0x00\n        /* \"#utility.yul\":2407:2416   */\n      dup4\n        /* \"#utility.yul\":2403:2420   */\n      add\n        /* \"#utility.yul\":2394:2400   */\n      dup5\n        /* \"#utility.yul\":2334:2421   */\n      tag_100\n      jump\t// in\n    tag_160:\n        /* \"#utility.yul\":2174:2428   */\n      swap3\n      swap2\n      pop\n      pop\n      jump\t// out\n        /* \"#utility.yul\":2515:2632   */\n    tag_102:\n        /* \"#utility.yul\":2624:2625   */\n      0x00\n        /* \"#utility.yul\":2621:2622   */\n      dup1\n        /* \"#utility.yul\":2614:2626   */\n      revert\n        /* \"#utility.yul\":2638:2755   */\n    tag_103:\n        /* \"#utility.yul\":2747:2748   */\n      0x00\n        /* \"#utility.yul\":2744:2745   */\n      dup1\n        /* \"#utility.yul\":2737:2749   */\n      revert\n        /* \"#utility.yul\":2761:2878   */\n    tag_104:\n        /* \"#utility.yul\":2870:2871   */\n      0x00\n        /* \"#utility.yul\":2867:2868   */\n      dup1\n        /* \"#utility.yul\":2860:2872   */\n      revert\n        /* \"#utility.yul\":2884:3001   */\n    tag_105:\n        /* \"#utility.yul\":2993:2994   */\n      0x00\n        /* \"#utility.yul\":2990:2991   */\n      dup1\n        /* \"#utility.yul\":2983:2995   */\n      revert\n        /* \"#utility.yul\":3007:3124   */\n    tag_106:\n        /* \"#utility.yul\":3116:3117   */\n      0x00\n        /* \"#utility.yul\":3113:3114   */\n      dup1\n        /* \"#utility.yul\":3106:3118   */\n      revert\n        /* \"#utility.yul\":3144:3697   */\n    tag_107:\n        /* \"#utility.yul\":3202:3210   */\n      0x00\n        /* \"#utility.yul\":3212:3218   */\n      dup1\n        /* \"#utility.yul\":3262:3265   */\n      dup4\n        /* \"#utility.yul\":3255:3259   */\n      0x1f\n        /* \"#utility.yul\":3247:3253   */\n      dup5\n        /* \"#utility.yul\":3243:3260   */\n      add\n        /* \"#utility.yul\":3239:3266   */\n      slt\n        /* \"#utility.yul\":3229:3351   */\n      tag_168\n      jumpi\n        /* \"#utility.yul\":3270:3349   */\n      tag_169\n      tag_104\n      jump\t// in\n    tag_169:\n        /* \"#utility.yul\":3229:3351   */\n    tag_168:\n        /* \"#utility.yul\":3383:3389   */\n      dup3\n        /* \"#utility.yul\":3370:3390   */\n      calldataload\n        /* \"#utility.yul\":3360:3390   */\n      swap1\n      pop\n        /* \"#utility.yul\":3413:3431   */\n      0xffffffffffffffff\n        /* \"#utility.yul\":3405:3411   */\n      dup2\n        /* \"#utility.yul\":3402:3432   */\n      gt\n        /* \"#utility.yul\":3399:3516   */\n      iszero\n      tag_170\n      jumpi\n        /* \"#utility.yul\":3435:3514   */\n      tag_171\n      tag_105\n      jump\t// in\n    tag_171:\n        /* \"#utility.yul\":3399:3516   */\n    tag_170:\n        /* \"#utility.yul\":3549:3553   */\n      0x20\n        /* \"#utility.yul\":3541:3547   */\n      dup4\n        /* \"#utility.yul\":3537:3554   */\n      add\n        /* \"#utility.yul\":3525:3554   */\n      swap2\n      pop\n        /* \"#utility.yul\":3603:3606   */\n      dup4\n        /* \"#utility.yul\":3595:3599   */\n      0x01\n        /* \"#utility.yul\":3587:3593   */\n      dup3\n        /* \"#utility.yul\":3583:3600   */\n      mul\n        /* \"#utility.yul\":3573:3581   */\n      dup4\n        /* \"#utility.yul\":3569:3601   */\n      add\n        /* \"#utility.yul\":3566:3607   */\n      gt\n        /* \"#utility.yul\":3563:3691   */\n      iszero\n      tag_172\n      jumpi\n        /* \"#utility.yul\":3610:3689   */\n      tag_173\n      tag_106\n      jump\t// in\n    tag_173:\n        /* \"#utility.yul\":3563:3691   */\n    tag_172:\n        /* \"#utility.yul\":3144:3697   */\n      swap3\n      pop\n      swap3\n      swap1\n      pop\n      jump\t// out\n        /* \"#utility.yul\":3703:4232   */\n    tag_38:\n        /* \"#utility.yul\":3774:3780   */\n      0x00\n        /* \"#utility.yul\":3782:3788   */\n      dup1\n        /* \"#utility.yul\":3831:3833   */\n      0x20\n        /* \"#utility.yul\":3819:3828   */\n      dup4\n        /* \"#utility.yul\":3810:3817   */\n      dup6\n        /* \"#utility.yul\":3806:3829   */\n      sub\n        /* \"#utility.yul\":3802:3834   */\n      slt\n        /* \"#utility.yul\":3799:3918   */\n      iszero\n      tag_175\n      jumpi\n        /* \"#utility.yul\":3837:3916   */\n      tag_176\n      tag_102\n      jump\t// in\n    tag_176:\n        /* \"#utility.yul\":3799:3918   */\n    tag_175:\n        /* \"#utility.yul\":3985:3986   */\n      0x00\n        /* \"#utility.yul\":3974:3983   */\n      dup4\n        /* \"#utility.yul\":3970:3987   */\n      add\n        /* \"#utility.yul\":3957:3988   */\n      calldataload\n        /* \"#utility.yul\":4015:4033   */\n      0xffffffffffffffff\n        /* \"#utility.yul\":4007:4013   */\n      dup2\n        /* \"#utility.yul\":4004:4034   */\n      gt\n        /* \"#utility.yul\":4001:4118   */\n      iszero\n      tag_177\n      jumpi\n        /* \"#utility.yul\":4037:4116   */\n      tag_178\n      tag_103\n      jump\t// in\n    tag_178:\n        /* \"#utility.yul\":4001:4118   */\n    tag_177:\n        /* \"#utility.yul\":4150:4215   */\n      tag_179\n        /* \"#utility.yul\":4207:4214   */\n      dup6\n        /* \"#utility.yul\":4198:4204   */\n      dup3\n        /* \"#utility.yul\":4187:4196   */\n      dup7\n        /* \"#utility.yul\":4183:4205   */\n      add\n        /* \"#utility.yul\":4150:4215   */\n      tag_107\n      jump\t// in\n    tag_179:\n        /* \"#utility.yul\":4132:4215   */\n      swap3\n      pop\n      swap3\n      pop\n        /* \"#utility.yul\":3928:4225   */\n      pop\n        /* \"#utility.yul\":3703:4232   */\n      swap3\n      pop\n      swap3\n      swap1\n      pop\n      jump\t// out\n        /* \"#utility.yul\":4238:4418   */\n    tag_108:\n        /* \"#utility.yul\":4286:4363   */\n      0x4e487b7100000000000000000000000000000000000000000000000000000000\n        /* \"#utility.yul\":4283:4284   */\n      0x00\n        /* \"#utility.yul\":4276:4364   */\n      mstore\n        /* \"#utility.yul\":4383:4387   */\n      0x22\n        /* \"#utility.yul\":4380:4381   */\n      0x04\n        /* \"#utility.yul\":4373:4388   */\n      mstore\n        /* \"#utility.yul\":4407:4411   */\n      0x24\n        /* \"#utility.yul\":4404:4405   */\n      0x00\n        /* \"#utility.yul\":4397:4412   */\n      revert\n        /* \"#utility.yul\":4424:4744   */\n    tag_51:\n        /* \"#utility.yul\":4468:4474   */\n      0x00\n        /* \"#utility.yul\":4505:4506   */\n      0x02\n        /* \"#utility.yul\":4499:4503   */\n      dup3\n        /* \"#utility.yul\":4495:4507   */\n      div\n        /* \"#utility.yul\":4485:4507   */\n      swap1\n      pop\n        /* \"#utility.yul\":4552:4553   */\n      0x01\n        /* \"#utility.yul\":4546:4550   */\n      dup3\n        /* \"#utility.yul\":4542:4554   */\n      and\n        /* \"#utility.yul\":4573:4591   */\n      dup1\n        /* \"#utility.yul\":4563:4644   */\n      tag_182\n      jumpi\n        /* \"#utility.yul\":4629:4633   */\n      0x7f\n        /* \"#utility.yul\":4621:4627   */\n      dup3\n        /* \"#utility.yul\":4617:4634   */\n      and\n        /* \"#utility.yul\":4607:4634   */\n      swap2\n      pop\n        /* \"#utility.yul\":4563:4644   */\n    tag_182:\n        /* \"#utility.yul\":4691:4693   */\n      0x20\n        /* \"#utility.yul\":4683:4689   */\n      dup3\n        /* \"#utility.yul\":4680:4694   */\n      lt\n        /* \"#utility.yul\":4660:4678   */\n      dup2\n        /* \"#utility.yul\":4657:4695   */\n      sub\n        /* \"#utility.yul\":4654:4738   */\n      tag_183\n      jumpi\n        /* \"#utility.yul\":4710:4728   */\n      tag_184\n      tag_108\n      jump\t// in\n    tag_184:\n        /* \"#utility.yul\":4654:4738   */\n    tag_183:\n        /* \"#utility.yul\":4475:4744   */\n      pop\n        /* \"#utility.yul\":4424:4744   */\n      swap2\n      swap1\n      pop\n      jump\t// out\n        /* \"#utility.yul\":4750:4970   */\n    tag_109:\n        /* \"#utility.yul\":4890:4924   */\n      0x596f75206e65656420746f206265207468652070726f6a65637420617574686f\n        /* \"#utility.yul\":4886:4887   */\n      0x00\n        /* \"#utility.yul\":4878:4884   */\n      dup3\n        /* \"#utility.yul\":4874:4888   */\n      add\n        /* \"#utility.yul\":4867:4925   */\n      mstore\n        /* \"#utility.yul\":4959:4962   */\n      0x7200000000000000000000000000000000000000000000000000000000000000\n        /* \"#utility.yul\":4954:4956   */\n      0x20\n        /* \"#utility.yul\":4946:4952   */\n      dup3\n        /* \"#utility.yul\":4942:4957   */\n      add\n        /* \"#utility.yul\":4935:4963   */\n      mstore\n        /* \"#utility.yul\":4750:4970   */\n      pop\n      jump\t// out\n        /* \"#utility.yul\":4976:5342   */\n    tag_110:\n        /* \"#utility.yul\":5118:5121   */\n      0x00\n        /* \"#utility.yul\":5139:5206   */\n      tag_187\n        /* \"#utility.yul\":5203:5205   */\n      0x21\n        /* \"#utility.yul\":5198:5201   */\n      dup4\n        /* \"#utility.yul\":5139:5206   */\n      tag_92\n      jump\t// in\n    tag_187:\n        /* \"#utility.yul\":5132:5206   */\n      swap2\n      pop\n        /* \"#utility.yul\":5215:5308   */\n      tag_188\n        /* \"#utility.yul\":5304:5307   */\n      dup3\n        /* \"#utility.yul\":5215:5308   */\n      tag_109\n      jump\t// in\n    tag_188:\n        /* \"#utility.yul\":5333:5335   */\n      0x40\n        /* \"#utility.yul\":5328:5331   */\n      dup3\n        /* \"#utility.yul\":5324:5336   */\n      add\n        /* \"#utility.yul\":5317:5336   */\n      swap1\n      pop\n        /* \"#utility.yul\":4976:5342   */\n      swap2\n      swap1\n      pop\n      jump\t// out\n        /* \"#utility.yul\":5348:5767   */\n    tag_69:\n        /* \"#utility.yul\":5514:5518   */\n      0x00\n        /* \"#utility.yul\":5552:5554   */\n      0x20\n        /* \"#utility.yul\":5541:5550   */\n      dup3\n        /* \"#utility.yul\":5537:5555   */\n      add\n        /* \"#utility.yul\":5529:5555   */\n      swap1\n      pop\n        /* \"#utility.yul\":5601:5610   */\n      dup2\n        /* \"#utility.yul\":5595:5599   */\n      dup2\n        /* \"#utility.yul\":5591:5611   */\n      sub\n        /* \"#utility.yul\":5587:5588   */\n      0x00\n        /* \"#utility.yul\":5576:5585   */\n      dup4\n        /* \"#utility.yul\":5572:5589   */\n      add\n        /* \"#utility.yul\":5565:5612   */\n      mstore\n        /* \"#utility.yul\":5629:5760   */\n      tag_190\n        /* \"#utility.yul\":5755:5759   */\n      dup2\n        /* \"#utility.yul\":5629:5760   */\n      tag_110\n      jump\t// in\n    tag_190:\n        /* \"#utility.yul\":5621:5760   */\n      swap1\n      pop\n        /* \"#utility.yul\":5348:5767   */\n      swap2\n      swap1\n      pop\n      jump\t// out\n        /* \"#utility.yul\":5773:5870   */\n    tag_111:\n        /* \"#utility.yul\":5832:5838   */\n      0x00\n        /* \"#utility.yul\":5860:5863   */\n      dup3\n        /* \"#utility.yul\":5850:5863   */\n      swap1\n      pop\n        /* \"#utility.yul\":5773:5870   */\n      swap3\n      swap2\n      pop\n      pop\n      jump\t// out\n        /* \"#utility.yul\":5876:6056   */\n    tag_112:\n        /* \"#utility.yul\":5924:6001   */\n      0x4e487b7100000000000000000000000000000000000000000000000000000000\n        /* \"#utility.yul\":5921:5922   */\n      0x00\n        /* \"#utility.yul\":5914:6002   */\n      mstore\n        /* \"#utility.yul\":6021:6025   */\n      0x41\n        /* \"#utility.yul\":6018:6019   */\n      0x04\n        /* \"#utility.yul\":6011:6026   */\n      mstore\n        /* \"#utility.yul\":6045:6049   */\n      0x24\n        /* \"#utility.yul\":6042:6043   */\n      0x00\n        /* \"#utility.yul\":6035:6050   */\n      revert\n        /* \"#utility.yul\":6062:6203   */\n    tag_113:\n        /* \"#utility.yul\":6111:6115   */\n      0x00\n        /* \"#utility.yul\":6134:6137   */\n      dup2\n        /* \"#utility.yul\":6126:6137   */\n      swap1\n      pop\n        /* \"#utility.yul\":6157:6160   */\n      dup2\n        /* \"#utility.yul\":6154:6155   */\n      0x00\n        /* \"#utility.yul\":6147:6161   */\n      mstore\n        /* \"#utility.yul\":6191:6195   */\n      0x20\n        /* \"#utility.yul\":6188:6189   */\n      0x00\n        /* \"#utility.yul\":6178:6196   */\n      keccak256\n        /* \"#utility.yul\":6170:6196   */\n      swap1\n      pop\n        /* \"#utility.yul\":6062:6203   */\n      swap2\n      swap1\n      pop\n      jump\t// out\n        /* \"#utility.yul\":6209:6302   */\n    tag_114:\n        /* \"#utility.yul\":6246:6252   */\n      0x00\n        /* \"#utility.yul\":6293:6295   */\n      0x20\n        /* \"#utility.yul\":6288:6290   */\n      0x1f\n        /* \"#utility.yul\":6281:6286   */\n      dup4\n        /* \"#utility.yul\":6277:6291   */\n      add\n        /* \"#utility.yul\":6273:6296   */\n      div\n        /* \"#utility.yul\":6263:6296   */\n      swap1\n      pop\n        /* \"#utility.yul\":6209:6302   */\n      swap2\n      swap1\n      pop\n      jump\t// out\n        /* \"#utility.yul\":6308:6415   */\n    tag_115:\n        /* \"#utility.yul\":6352:6360   */\n      0x00\n        /* \"#utility.yul\":6402:6407   */\n      dup3\n        /* \"#utility.yul\":6396:6400   */\n      dup3\n        /* \"#utility.yul\":6392:6408   */\n      shl\n        /* \"#utility.yul\":6371:6408   */\n      swap1\n      pop\n        /* \"#utility.yul\":6308:6415   */\n      swap3\n      swap2\n      pop\n      pop\n      jump\t// out\n        /* \"#utility.yul\":6421:6814   */\n    tag_116:\n        /* \"#utility.yul\":6490:6496   */\n      0x00\n        /* \"#utility.yul\":6540:6541   */\n      0x08\n        /* \"#utility.yul\":6528:6538   */\n      dup4\n        /* \"#utility.yul\":6524:6542   */\n      mul\n        /* \"#utility.yul\":6563:6660   */\n      tag_197\n        /* \"#utility.yul\":6593:6659   */\n      0xffffffffffffffffffffffffffffffffffffffffffffffffffffffffffffffff\n        /* \"#utility.yul\":6582:6591   */\n      dup3\n        /* \"#utility.yul\":6563:6660   */\n      tag_115\n      jump\t// in\n    tag_197:\n        /* \"#utility.yul\":6681:6720   */\n      tag_198\n        /* \"#utility.yul\":6711:6719   */\n      dup7\n        /* \"#utility.yul\":6700:6709   */\n      dup4\n        /* \"#utility.yul\":6681:6720   */\n      tag_115\n      jump\t// in\n    tag_198:\n        /* \"#utility.yul\":6669:6720   */\n      swap6\n      pop\n        /* \"#utility.yul\":6753:6757   */\n      dup1\n        /* \"#utility.yul\":6749:6758   */\n      not\n        /* \"#utility.yul\":6742:6747   */\n      dup5\n        /* \"#utility.yul\":6738:6759   */\n      and\n        /* \"#utility.yul\":6729:6759   */\n      swap4\n      pop\n        /* \"#utility.yul\":6802:6806   */\n      dup1\n        /* \"#utility.yul\":6792:6800   */\n      dup7\n        /* \"#utility.yul\":6788:6807   */\n      and\n        /* \"#utility.yul\":6781:6786   */\n      dup5\n        /* \"#utility.yul\":6778:6808   */\n      or\n        /* \"#utility.yul\":6768:6808   */\n      swap3\n      pop\n        /* \"#utility.yul\":6497:6814   */\n      pop\n      pop\n        /* \"#utility.yul\":6421:6814   */\n      swap4\n      swap3\n      pop\n      pop\n      pop\n      jump\t// out\n        /* \"#utility.yul\":6820:6880   */\n    tag_117:\n        /* \"#utility.yul\":6848:6851   */\n      0x00\n        /* \"#utility.yul\":6869:6874   */\n      dup2\n        /* \"#utility.yul\":6862:6874   */\n      swap1\n      pop\n        /* \"#utility.yul\":6820:6880   */\n      swap2\n      swap1\n      pop\n      jump\t// out\n        /* \"#utility.yul\":6886:7028   */\n    tag_118:\n        /* \"#utility.yul\":6936:6945   */\n      0x00\n        /* \"#utility.yul\":6969:7022   */\n      tag_201\n        /* \"#utility.yul\":6987:7021   */\n      tag_202\n        /* \"#utility.yul\":6996:7020   */\n      tag_203\n        /* \"#utility.yul\":7014:7019   */\n      dup5\n        /* \"#utility.yul\":6996:7020   */\n      tag_96\n      jump\t// in\n    tag_203:\n        /* \"#utility.yul\":6987:7021   */\n      tag_117\n      jump\t// in\n    tag_202:\n        /* \"#utility.yul\":6969:7022   */\n      tag_96\n      jump\t// in\n    tag_201:\n        /* \"#utility.yul\":6956:7022   */\n      swap1\n      pop\n        /* \"#utility.yul\":6886:7028   */\n      swap2\n      swap1\n      pop\n      jump\t// out\n        /* \"#utility.yul\":7034:7109   */\n    tag_119:\n        /* \"#utility.yul\":7077:7080   */\n      0x00\n        /* \"#utility.yul\":7098:7103   */\n      dup2\n        /* \"#utility.yul\":7091:7103   */\n      swap1\n      pop\n        /* \"#utility.yul\":7034:7109   */\n      swap2\n      swap1\n      pop\n      jump\t// out\n        /* \"#utility.yul\":7115:7384   */\n    tag_120:\n        /* \"#utility.yul\":7225:7264   */\n      tag_206\n        /* \"#utility.yul\":7256:7263   */\n      dup4\n        /* \"#utility.yul\":7225:7264   */\n      tag_118\n      jump\t// in\n    tag_206:\n        /* \"#utility.yul\":7286:7377   */\n      tag_207\n        /* \"#utility.yul\":7335:7376   */\n      tag_208\n        /* \"#utility.yul\":7359:7375   */\n      dup3\n        /* \"#utility.yul\":7335:7376   */\n      tag_119\n      jump\t// in\n    tag_208:\n        /* \"#utility.yul\":7327:7333   */\n      dup5\n        /* \"#utility.yul\":7320:7324   */\n      dup5\n        /* \"#utility.yul\":7314:7325   */\n      sload\n        /* \"#utility.yul\":7286:7377   */\n      tag_116\n      jump\t// in\n    tag_207:\n        /* \"#utility.yul\":7280:7284   */\n      dup3\n        /* \"#utility.yul\":7273:7378   */\n      sstore\n        /* \"#utility.yul\":7191:7384   */\n      pop\n        /* \"#utility.yul\":7115:7384   */\n      pop\n      pop\n      pop\n      jump\t// out\n        /* \"#utility.yul\":7390:7463   */\n    tag_121:\n        /* \"#utility.yul\":7435:7438   */\n      0x00\n        /* \"#utility.yul\":7390:7463   */\n      swap1\n      jump\t// out\n        /* \"#utility.yul\":7469:7658   */\n    tag_122:\n        /* \"#utility.yul\":7546:7578   */\n      tag_211\n      tag_121\n      jump\t// in\n    tag_211:\n        /* \"#utility.yul\":7587:7652   */\n      tag_212\n        /* \"#utility.yul\":7645:7651   */\n      dup2\n        /* \"#utility.yul\":7637:7643   */\n      dup5\n        /* \"#utility.yul\":7631:7635   */\n      dup5\n        /* \"#utility.yul\":7587:7652   */\n      tag_120\n      jump\t// in\n    tag_212:\n        /* \"#utility.yul\":7522:7658   */\n      pop\n        /* \"#utility.yul\":7469:7658   */\n      pop\n      pop\n      jump\t// out\n        /* \"#utility.yul\":7664:7850   */\n    tag_123:\n        /* \"#utility.yul\":7724:7844   */\n    tag_214:\n        /* \"#utility.yul\":7741:7744   */\n      dup2\n        /* \"#utility.yul\":7734:7739   */\n      dup2\n        /* \"#utility.yul\":7731:7745   */\n      lt\n        /* \"#utility.yul\":7724:7844   */\n      iszero\n      tag_216\n      jumpi\n        /* \"#utility.yul\":7795:7834   */\n      tag_217\n        /* \"#utility.yul\":7832:7833   */\n      0x00\n        /* \"#utility.yul\":7825:7830   */\n      dup3\n        /* \"#utility.yul\":7795:7834   */\n      tag_122\n      jump\t// in\n    tag_217:\n        /* \"#utility.yul\":7768:7769   */\n      0x01\n        /* \"#utility.yul\":7761:7766   */\n      dup2\n        /* \"#utility.yul\":7757:7770   */\n      add\n        /* \"#utility.yul\":7748:7770   */\n      swap1\n      pop\n        /* \"#utility.yul\":7724:7844   */\n      jump(tag_214)\n    tag_216:\n        /* \"#utility.yul\":7664:7850   */\n      pop\n      pop\n      jump\t// out\n        /* \"#utility.yul\":7856:8399   */\n    tag_124:\n        /* \"#utility.yul\":7957:7959   */\n      0x1f\n        /* \"#utility.yul\":7952:7955   */\n      dup3\n        /* \"#utility.yul\":7949:7960   */\n      gt\n        /* \"#utility.yul\":7946:8392   */\n      iszero\n      tag_219\n      jumpi\n        /* \"#utility.yul\":7991:8029   */\n      tag_220\n        /* \"#utility.yul\":8023:8028   */\n      dup2\n        /* \"#utility.yul\":7991:8029   */\n      tag_113\n      jump\t// in\n    tag_220:\n        /* \"#utility.yul\":8075:8104   */\n      tag_221\n        /* \"#utility.yul\":8093:8103   */\n      dup5\n        /* \"#utility.yul\":8075:8104   */\n      tag_114\n      jump\t// in\n    tag_221:\n        /* \"#utility.yul\":8065:8073   */\n      dup2\n        /* \"#utility.yul\":8061:8105   */\n      add\n        /* \"#utility.yul\":8258:8260   */\n      0x20\n        /* \"#utility.yul\":8246:8256   */\n      dup6\n        /* \"#utility.yul\":8243:8261   */\n      lt\n        /* \"#utility.yul\":8240:8289   */\n      iszero\n      tag_222\n      jumpi\n        /* \"#utility.yul\":8279:8287   */\n      dup2\n        /* \"#utility.yul\":8264:8287   */\n      swap1\n      pop\n        /* \"#utility.yul\":8240:8289   */\n    tag_222:\n        /* \"#utility.yul\":8302:8382   */\n      tag_223\n        /* \"#utility.yul\":8358:8380   */\n      tag_224\n        /* \"#utility.yul\":8376:8379   */\n      dup6\n        /* \"#utility.yul\":8358:8380   */\n      tag_114\n      jump\t// in\n    tag_224:\n        /* \"#utility.yul\":8348:8356   */\n      dup4\n        /* \"#utility.yul\":8344:8381   */\n      add\n        /* \"#utility.yul\":8331:8342   */\n      dup3\n        /* \"#utility.yul\":8302:8382   */\n      tag_123\n      jump\t// in\n    tag_223:\n        /* \"#utility.yul\":7961:8392   */\n      pop\n      pop\n        /* \"#utility.yul\":7946:8392   */\n    tag_219:\n        /* \"#utility.yul\":7856:8399   */\n      pop\n      pop\n      pop\n      jump\t// out\n        /* \"#utility.yul\":8405:8522   */\n    tag_125:\n        /* \"#utility.yul\":8459:8467   */\n      0x00\n        /* \"#utility.yul\":8509:8514   */\n      dup3\n        /* \"#utility.yul\":8503:8507   */\n      dup3\n        /* \"#utility.yul\":8499:8515   */\n      shr\n        /* \"#utility.yul\":8478:8515   */\n      swap1\n      pop\n        /* \"#utility.yul\":8405:8522   */\n      swap3\n      swap2\n      pop\n      pop\n      jump\t// out\n        /* \"#utility.yul\":8528:8697   */\n    tag_126:\n        /* \"#utility.yul\":8572:8578   */\n      0x00\n        /* \"#utility.yul\":8605:8656   */\n      tag_227\n        /* \"#utility.yul\":8653:8654   */\n      0x00\n        /* \"#utility.yul\":8649:8655   */\n      not\n        /* \"#utility.yul\":8641:8646   */\n      dup5\n        /* \"#utility.yul\":8638:8639   */\n      0x08\n        /* \"#utility.yul\":8634:8647   */\n      mul\n        /* \"#utility.yul\":8605:8656   */\n      tag_125\n      jump\t// in\n    tag_227:\n        /* \"#utility.yul\":8601:8657   */\n      not\n        /* \"#utility.yul\":8686:8690   */\n      dup1\n        /* \"#utility.yul\":8680:8684   */\n      dup4\n        /* \"#utility.yul\":8676:8691   */\n      and\n        /* \"#utility.yul\":8666:8691   */\n      swap2\n      pop\n        /* \"#utility.yul\":8579:8697   */\n      pop\n        /* \"#utility.yul\":8528:8697   */\n      swap3\n      swap2\n      pop\n      pop\n      jump\t// out\n        /* \"#utility.yul\":8702:8997   */\n    tag_127:\n        /* \"#utility.yul\":8778:8782   */\n      0x00\n        /* \"#utility.yul\":8924:8953   */\n      tag_229\n        /* \"#utility.yul\":8949:8952   */\n      dup4\n        /* \"#utility.yul\":8943:8947   */\n      dup4\n        /* \"#utility.yul\":8924:8953   */\n      tag_126\n      jump\t// in\n    tag_229:\n        /* \"#utility.yul\":8916:8953   */\n      swap2\n      pop\n        /* \"#utility.yul\":8986:8989   */\n      dup3\n        /* \"#utility.yul\":8983:8984   */\n      0x02\n        /* \"#utility.yul\":8979:8990   */\n      mul\n        /* \"#utility.yul\":8973:8977   */\n      dup3\n        /* \"#utility.yul\":8970:8991   */\n      or\n        /* \"#utility.yul\":8962:8991   */\n      swap1\n      pop\n        /* \"#utility.yul\":8702:8997   */\n      swap3\n      swap2\n      pop\n      pop\n      jump\t// out\n        /* \"#utility.yul\":9002:10405   */\n    tag_72:\n        /* \"#utility.yul\":9126:9170   */\n      tag_231\n        /* \"#utility.yul\":9166:9169   */\n      dup4\n        /* \"#utility.yul\":9161:9164   */\n      dup4\n        /* \"#utility.yul\":9126:9170   */\n      tag_111\n      jump\t// in\n    tag_231:\n        /* \"#utility.yul\":9235:9253   */\n      0xffffffffffffffff\n        /* \"#utility.yul\":9227:9233   */\n      dup2\n        /* \"#utility.yul\":9224:9254   */\n      gt\n        /* \"#utility.yul\":9221:9277   */\n      iszero\n      tag_232\n      jumpi\n        /* \"#utility.yul\":9257:9275   */\n      tag_233\n      tag_112\n      jump\t// in\n    tag_233:\n        /* \"#utility.yul\":9221:9277   */\n    tag_232:\n        /* \"#utility.yul\":9301:9339   */\n      tag_234\n        /* \"#utility.yul\":9333:9337   */\n      dup3\n        /* \"#utility.yul\":9327:9338   */\n      sload\n        /* \"#utility.yul\":9301:9339   */\n      tag_51\n      jump\t// in\n    tag_234:\n        /* \"#utility.yul\":9386:9453   */\n      tag_235\n        /* \"#utility.yul\":9446:9452   */\n      dup3\n        /* \"#utility.yul\":9438:9444   */\n      dup3\n        /* \"#utility.yul\":9432:9436   */\n      dup6\n        /* \"#utility.yul\":9386:9453   */\n      tag_124\n      jump\t// in\n    tag_235:\n        /* \"#utility.yul\":9480:9481   */\n      0x00\n        /* \"#utility.yul\":9509:9511   */\n      0x1f\n        /* \"#utility.yul\":9501:9507   */\n      dup4\n        /* \"#utility.yul\":9498:9512   */\n      gt\n        /* \"#utility.yul\":9526:9527   */\n      0x01\n        /* \"#utility.yul\":9521:10153   */\n      dup2\n      eq\n      tag_237\n      jumpi\n        /* \"#utility.yul\":10197:10198   */\n      0x00\n        /* \"#utility.yul\":10214:10220   */\n      dup5\n        /* \"#utility.yul\":10211:10295   */\n      iszero\n      tag_238\n      jumpi\n        /* \"#utility.yul\":10270:10279   */\n      dup3\n        /* \"#utility.yul\":10265:10268   */\n      dup8\n        /* \"#utility.yul\":10261:10280   */\n      add\n        /* \"#utility.yul\":10248:10281   */\n      calldataload\n        /* \"#utility.yul\":10239:10281   */\n      swap1\n      pop\n        /* \"#utility.yul\":10211:10295   */\n    tag_238:\n        /* \"#utility.yul\":10321:10388   */\n      tag_239\n        /* \"#utility.yul\":10381:10387   */\n      dup6\n        /* \"#utility.yul\":10374:10379   */\n      dup3\n        /* \"#utility.yul\":10321:10388   */\n      tag_127\n      jump\t// in\n    tag_239:\n        /* \"#utility.yul\":10315:10319   */\n      dup7\n        /* \"#utility.yul\":10308:10389   */\n      sstore\n        /* \"#utility.yul\":10170:10399   */\n      pop\n        /* \"#utility.yul\":9491:10399   */\n      jump(tag_236)\n        /* \"#utility.yul\":9521:10153   */\n    tag_237:\n        /* \"#utility.yul\":9573:9577   */\n      0x1f\n        /* \"#utility.yul\":9569:9578   */\n      not\n        /* \"#utility.yul\":9561:9567   */\n      dup5\n        /* \"#utility.yul\":9557:9579   */\n      and\n        /* \"#utility.yul\":9607:9644   */\n      tag_240\n        /* \"#utility.yul\":9639:9643   */\n      dup7\n        /* \"#utility.yul\":9607:9644   */\n      tag_113\n      jump\t// in\n    tag_240:\n        /* \"#utility.yul\":9666:9667   */\n      0x00\n        /* \"#utility.yul\":9680:9895   */\n    tag_241:\n        /* \"#utility.yul\":9694:9701   */\n      dup3\n        /* \"#utility.yul\":9691:9692   */\n      dup2\n        /* \"#utility.yul\":9688:9702   */\n      lt\n        /* \"#utility.yul\":9680:9895   */\n      iszero\n      tag_243\n      jumpi\n        /* \"#utility.yul\":9780:9789   */\n      dup5\n        /* \"#utility.yul\":9775:9778   */\n      dup10\n        /* \"#utility.yul\":9771:9790   */\n      add\n        /* \"#utility.yul\":9758:9791   */\n      calldataload\n        /* \"#utility.yul\":9750:9756   */\n      dup3\n        /* \"#utility.yul\":9743:9792   */\n      sstore\n        /* \"#utility.yul\":9831:9832   */\n      0x01\n        /* \"#utility.yul\":9823:9829   */\n      dup3\n        /* \"#utility.yul\":9819:9833   */\n      add\n        /* \"#utility.yul\":9809:9833   */\n      swap2\n      pop\n        /* \"#utility.yul\":9878:9880   */\n      0x20\n        /* \"#utility.yul\":9867:9876   */\n      dup6\n        /* \"#utility.yul\":9863:9881   */\n      add\n        /* \"#utility.yul\":9850:9881   */\n      swap5\n      pop\n        /* \"#utility.yul\":9717:9721   */\n      0x20\n        /* \"#utility.yul\":9714:9715   */\n      dup2\n        /* \"#utility.yul\":9710:9722   */\n      add\n        /* \"#utility.yul\":9705:9722   */\n      swap1\n      pop\n        /* \"#utility.yul\":9680:9895   */\n      jump(tag_241)\n    tag_243:\n        /* \"#utility.yul\":9923:9929   */\n      dup7\n        /* \"#utility.yul\":9914:9921   */\n      dup4\n        /* \"#utility.yul\":9911:9930   */\n      lt\n        /* \"#utility.yul\":9908:10094   */\n      iszero\n      tag_244\n      jumpi\n        /* \"#utility.yul\":9988:9997   */\n      dup5\n        /* \"#utility.yul\":9983:9986   */\n      dup10\n        /* \"#utility.yul\":9979:9998   */\n      add\n        /* \"#utility.yul\":9966:9999   */\n      calldataload\n        /* \"#utility.yul\":10031:10079   */\n      tag_245\n        /* \"#utility.yul\":10073:10077   */\n      0x1f\n        /* \"#utility.yul\":10065:10071   */\n      dup10\n        /* \"#utility.yul\":10061:10078   */\n      and\n        /* \"#utility.yul\":10050:10059   */\n      dup3\n        /* \"#utility.yul\":10031:10079   */\n      tag_126\n      jump\t// in\n    tag_245:\n        /* \"#utility.yul\":10023:10029   */\n      dup4\n        /* \"#utility.yul\":10016:10080   */\n      sstore\n        /* \"#utility.yul\":9931:10094   */\n      pop\n        /* \"#utility.yul\":9908:10094   */\n    tag_244:\n        /* \"#utility.yul\":10140:10141   */\n      0x01\n        /* \"#utility.yul\":10136:10137   */\n      0x02\n        /* \"#utility.yul\":10128:10134   */\n      dup9\n        /* \"#utility.yul\":10124:10138   */\n      mul\n        /* \"#utility.yul\":10120:10142   */\n      add\n        /* \"#utility.yul\":10114:10118   */\n      dup9\n        /* \"#utility.yul\":10107:10143   */\n      sstore\n        /* \"#utility.yul\":9528:10153   */\n      pop\n      pop\n      pop\n        /* \"#utility.yul\":9491:10399   */\n    tag_236:\n      pop\n        /* \"#utility.yul\":9101:10405   */\n      pop\n      pop\n      pop\n        /* \"#utility.yul\":9002:10405   */\n      pop\n      pop\n      pop\n      jump\t// out\n        /* \"#utility.yul\":10435:11266   */\n    tag_128:\n        /* \"#utility.yul\":10520:10523   */\n      0x00\n        /* \"#utility.yul\":10557:10562   */\n      dup2\n        /* \"#utility.yul\":10551:10563   */\n      sload\n        /* \"#utility.yul\":10586:10622   */\n      tag_247\n        /* \"#utility.yul\":10612:10621   */\n      dup2\n        /* \"#utility.yul\":10586:10622   */\n      tag_51\n      jump\t// in\n    tag_247:\n        /* \"#utility.yul\":10638:10709   */\n      tag_248\n        /* \"#utility.yul\":10702:10708   */\n      dup2\n        /* \"#utility.yul\":10697:10700   */\n      dup7\n        /* \"#utility.yul\":10638:10709   */\n      tag_92\n      jump\t// in\n    tag_248:\n        /* \"#utility.yul\":10631:10709   */\n      swap5\n      pop\n        /* \"#utility.yul\":10740:10741   */\n      0x01\n        /* \"#utility.yul\":10729:10738   */\n      dup3\n        /* \"#utility.yul\":10725:10742   */\n      and\n        /* \"#utility.yul\":10756:10757   */\n      0x00\n        /* \"#utility.yul\":10751:10915   */\n      dup2\n      eq\n      tag_250\n      jumpi\n        /* \"#utility.yul\":10929:10930   */\n      0x01\n        /* \"#utility.yul\":10924:11260   */\n      dup2\n      eq\n      tag_251\n      jumpi\n        /* \"#utility.yul\":10718:11260   */\n      jump(tag_249)\n        /* \"#utility.yul\":10751:10915   */\n    tag_250:\n        /* \"#utility.yul\":10835:10839   */\n      0xff\n        /* \"#utility.yul\":10831:10840   */\n      not\n        /* \"#utility.yul\":10820:10829   */\n      dup4\n        /* \"#utility.yul\":10816:10841   */\n      and\n        /* \"#utility.yul\":10811:10814   */\n      dup7\n        /* \"#utility.yul\":10804:10842   */\n      mstore\n        /* \"#utility.yul\":10895:10901   */\n      dup2\n        /* \"#utility.yul\":10888:10902   */\n      iszero\n        /* \"#utility.yul\":10881:10903   */\n      iszero\n        /* \"#utility.yul\":10875:10879   */\n      0x20\n        /* \"#utility.yul\":10871:10904   */\n      mul\n        /* \"#utility.yul\":10866:10869   */\n      dup7\n        /* \"#utility.yul\":10862:10905   */\n      add\n        /* \"#utility.yul\":10855:10905   */\n      swap4\n      pop\n        /* \"#utility.yul\":10751:10915   */\n      jump(tag_249)\n        /* \"#utility.yul\":10924:11260   */\n    tag_251:\n        /* \"#utility.yul\":10991:11029   */\n      tag_252\n        /* \"#utility.yul\":11023:11028   */\n      dup6\n        /* \"#utility.yul\":10991:11029   */\n      tag_113\n      jump\t// in\n    tag_252:\n        /* \"#utility.yul\":11051:11052   */\n      0x00\n        /* \"#utility.yul\":11065:11219   */\n    tag_253:\n        /* \"#utility.yul\":11079:11085   */\n      dup4\n        /* \"#utility.yul\":11076:11077   */\n      dup2\n        /* \"#utility.yul\":11073:11086   */\n      lt\n        /* \"#utility.yul\":11065:11219   */\n      iszero\n      tag_255\n      jumpi\n        /* \"#utility.yul\":11153:11160   */\n      dup2\n        /* \"#utility.yul\":11147:11161   */\n      sload\n        /* \"#utility.yul\":11143:11144   */\n      dup2\n        /* \"#utility.yul\":11138:11141   */\n      dup10\n        /* \"#utility.yul\":11134:11145   */\n      add\n        /* \"#utility.yul\":11127:11162   */\n      mstore\n        /* \"#utility.yul\":11203:11204   */\n      0x01\n        /* \"#utility.yul\":11194:11201   */\n      dup3\n        /* \"#utility.yul\":11190:11205   */\n      add\n        /* \"#utility.yul\":11179:11205   */\n      swap2\n      pop\n        /* \"#utility.yul\":11101:11105   */\n      0x20\n        /* \"#utility.yul\":11098:11099   */\n      dup2\n        /* \"#utility.yul\":11094:11106   */\n      add\n        /* \"#utility.yul\":11089:11106   */\n      swap1\n      pop\n        /* \"#utility.yul\":11065:11219   */\n      jump(tag_253)\n    tag_255:\n        /* \"#utility.yul\":11248:11249   */\n      dup1\n        /* \"#utility.yul\":11243:11246   */\n      dup9\n        /* \"#utility.yul\":11239:11250   */\n      add\n        /* \"#utility.yul\":11232:11250   */\n      swap6\n      pop\n        /* \"#utility.yul\":10931:11260   */\n      pop\n      pop\n        /* \"#utility.yul\":10718:11260   */\n    tag_249:\n      pop\n        /* \"#utility.yul\":10524:11266   */\n      pop\n      pop\n        /* \"#utility.yul\":10435:11266   */\n      swap3\n      swap2\n      pop\n      pop\n      jump\t// out\n        /* \"#utility.yul\":11272:11418   */\n    tag_129:\n        /* \"#utility.yul\":11369:11375   */\n      dup3\n        /* \"#utility.yul\":11364:11367   */\n      dup2\n        /* \"#utility.yul\":11359:11362   */\n      dup4\n        /* \"#utility.yul\":11346:11376   */\n      calldatacopy\n        /* \"#utility.yul\":11410:11411   */\n      0x00\n        /* \"#utility.yul\":11401:11407   */\n      dup4\n        /* \"#utility.yul\":11396:11399   */\n      dup4\n        /* \"#utility.yul\":11392:11408   */\n      add\n        /* \"#utility.yul\":11385:11412   */\n      mstore\n        /* \"#utility.yul\":11272:11418   */\n      pop\n      pop\n      pop\n      jump\t// out\n        /* \"#utility.yul\":11448:11765   */\n    tag_130:\n        /* \"#utility.yul\":11546:11549   */\n      0x00\n        /* \"#utility.yul\":11567:11638   */\n      tag_258\n        /* \"#utility.yul\":11631:11637   */\n      dup4\n        /* \"#utility.yul\":11626:11629   */\n      dup6\n        /* \"#utility.yul\":11567:11638   */\n      tag_92\n      jump\t// in\n    tag_258:\n        /* \"#utility.yul\":11560:11638   */\n      swap4\n      pop\n        /* \"#utility.yul\":11648:11704   */\n      tag_259\n        /* \"#utility.yul\":11697:11703   */\n      dup4\n        /* \"#utility.yul\":11692:11695   */\n      dup6\n        /* \"#utility.yul\":11685:11690   */\n      dup5\n        /* \"#utility.yul\":11648:11704   */\n      tag_129\n      jump\t// in\n    tag_259:\n        /* \"#utility.yul\":11729:11758   */\n      tag_260\n        /* \"#utility.yul\":11751:11757   */\n      dup4\n        /* \"#utility.yul\":11729:11758   */\n      tag_94\n      jump\t// in\n    tag_260:\n        /* \"#utility.yul\":11724:11727   */\n      dup5\n        /* \"#utility.yul\":11720:11759   */\n      add\n        /* \"#utility.yul\":11713:11759   */\n      swap1\n      pop\n        /* \"#utility.yul\":11448:11765   */\n      swap4\n      swap3\n      pop\n      pop\n      pop\n      jump\t// out\n        /* \"#utility.yul\":11771:12299   */\n    tag_74:\n        /* \"#utility.yul\":11939:11943   */\n      0x00\n        /* \"#utility.yul\":11977:11979   */\n      0x40\n        /* \"#utility.yul\":11966:11975   */\n      dup3\n        /* \"#utility.yul\":11962:11980   */\n      add\n        /* \"#utility.yul\":11954:11980   */\n      swap1\n      pop\n        /* \"#utility.yul\":12026:12035   */\n      dup2\n        /* \"#utility.yul\":12020:12024   */\n      dup2\n        /* \"#utility.yul\":12016:12036   */\n      sub\n        /* \"#utility.yul\":12012:12013   */\n      0x00\n        /* \"#utility.yul\":12001:12010   */\n      dup4\n        /* \"#utility.yul\":11997:12014   */\n      add\n        /* \"#utility.yul\":11990:12037   */\n      mstore\n        /* \"#utility.yul\":12054:12129   */\n      tag_262\n        /* \"#utility.yul\":12124:12128   */\n      dup2\n        /* \"#utility.yul\":12115:12121   */\n      dup7\n        /* \"#utility.yul\":12054:12129   */\n      tag_128\n      jump\t// in\n    tag_262:\n        /* \"#utility.yul\":12046:12129   */\n      swap1\n      pop\n        /* \"#utility.yul\":12176:12185   */\n      dup2\n        /* \"#utility.yul\":12170:12174   */\n      dup2\n        /* \"#utility.yul\":12166:12186   */\n      sub\n        /* \"#utility.yul\":12161:12163   */\n      0x20\n        /* \"#utility.yul\":12150:12159   */\n      dup4\n        /* \"#utility.yul\":12146:12164   */\n      add\n        /* \"#utility.yul\":12139:12187   */\n      mstore\n        /* \"#utility.yul\":12204:12292   */\n      tag_263\n        /* \"#utility.yul\":12287:12291   */\n      dup2\n        /* \"#utility.yul\":12278:12284   */\n      dup5\n        /* \"#utility.yul\":12270:12276   */\n      dup7\n        /* \"#utility.yul\":12204:12292   */\n      tag_130\n      jump\t// in\n    tag_263:\n        /* \"#utility.yul\":12196:12292   */\n      swap1\n      pop\n        /* \"#utility.yul\":11771:12299   */\n      swap5\n      swap4\n      pop\n      pop\n      pop\n      pop\n      jump\t// out\n        /* \"#utility.yul\":12305:12535   */\n    tag_131:\n        /* \"#utility.yul\":12445:12479   */\n      0x417320617574686f7220796f752063616e206e6f742066756e6420796f757220\n        /* \"#utility.yul\":12441:12442   */\n      0x00\n        /* \"#utility.yul\":12433:12439   */\n      dup3\n        /* \"#utility.yul\":12429:12443   */\n      add\n        /* \"#utility.yul\":12422:12480   */\n      mstore\n        /* \"#utility.yul\":12514:12527   */\n      0x6f776e2070726f6a656374000000000000000000000000000000000000000000\n        /* \"#utility.yul\":12509:12511   */\n      0x20\n        /* \"#utility.yul\":12501:12507   */\n      dup3\n        /* \"#utility.yul\":12497:12512   */\n      add\n        /* \"#utility.yul\":12490:12528   */\n      mstore\n        /* \"#utility.yul\":12305:12535   */\n      pop\n      jump\t// out\n        /* \"#utility.yul\":12541:12907   */\n    tag_132:\n        /* \"#utility.yul\":12683:12686   */\n      0x00\n        /* \"#utility.yul\":12704:12771   */\n      tag_266\n        /* \"#utility.yul\":12768:12770   */\n      0x2b\n        /* \"#utility.yul\":12763:12766   */\n      dup4\n        /* \"#utility.yul\":12704:12771   */\n      tag_92\n      jump\t// in\n    tag_266:\n        /* \"#utility.yul\":12697:12771   */\n      swap2\n      pop\n        /* \"#utility.yul\":12780:12873   */\n      tag_267\n        /* \"#utility.yul\":12869:12872   */\n      dup3\n        /* \"#utility.yul\":12780:12873   */\n      tag_131\n      jump\t// in\n    tag_267:\n        /* \"#utility.yul\":12898:12900   */\n      0x40\n        /* \"#utility.yul\":12893:12896   */\n      dup3\n        /* \"#utility.yul\":12889:12901   */\n      add\n        /* \"#utility.yul\":12882:12901   */\n      swap1\n      pop\n        /* \"#utility.yul\":12541:12907   */\n      swap2\n      swap1\n      pop\n      jump\t// out\n        /* \"#utility.yul\":12913:13332   */\n    tag_83:\n        /* \"#utility.yul\":13079:13083   */\n      0x00\n        /* \"#utility.yul\":13117:13119   */\n      0x20\n        /* \"#utility.yul\":13106:13115   */\n      dup3\n        /* \"#utility.yul\":13102:13120   */\n      add\n        /* \"#utility.yul\":13094:13120   */\n      swap1\n      pop\n        /* \"#utility.yul\":13166:13175   */\n      dup2\n        /* \"#utility.yul\":13160:13164   */\n      dup2\n        /* \"#utility.yul\":13156:13176   */\n      sub\n        /* \"#utility.yul\":13152:13153   */\n      0x00\n        /* \"#utility.yul\":13141:13150   */\n      dup4\n        /* \"#utility.yul\":13137:13154   */\n      add\n        /* \"#utility.yul\":13130:13177   */\n      mstore\n        /* \"#utility.yul\":13194:13325   */\n      tag_269\n        /* \"#utility.yul\":13320:13324   */\n      dup2\n        /* \"#utility.yul\":13194:13325   */\n      tag_132\n      jump\t// in\n    tag_269:\n        /* \"#utility.yul\":13186:13325   */\n      swap1\n      pop\n        /* \"#utility.yul\":12913:13332   */\n      swap2\n      swap1\n      pop\n      jump\t// out\n        /* \"#utility.yul\":13338:13518   */\n    tag_133:\n        /* \"#utility.yul\":13386:13463   */\n      0x4e487b7100000000000000000000000000000000000000000000000000000000\n        /* \"#utility.yul\":13383:13384   */\n      0x00\n        /* \"#utility.yul\":13376:13464   */\n      mstore\n        /* \"#utility.yul\":13483:13487   */\n      0x11\n        /* \"#utility.yul\":13480:13481   */\n      0x04\n        /* \"#utility.yul\":13473:13488   */\n      mstore\n        /* \"#utility.yul\":13507:13511   */\n      0x24\n        /* \"#utility.yul\":13504:13505   */\n      0x00\n        /* \"#utility.yul\":13497:13512   */\n      revert\n        /* \"#utility.yul\":13524:13715   */\n    tag_88:\n        /* \"#utility.yul\":13564:13567   */\n      0x00\n        /* \"#utility.yul\":13583:13603   */\n      tag_272\n        /* \"#utility.yul\":13601:13602   */\n      dup3\n        /* \"#utility.yul\":13583:13603   */\n      tag_96\n      jump\t// in\n    tag_272:\n        /* \"#utility.yul\":13578:13603   */\n      swap2\n      pop\n        /* \"#utility.yul\":13617:13637   */\n      tag_273\n        /* \"#utility.yul\":13635:13636   */\n      dup4\n        /* \"#utility.yul\":13617:13637   */\n      tag_96\n      jump\t// in\n    tag_273:\n        /* \"#utility.yul\":13612:13637   */\n      swap3\n      pop\n        /* \"#utility.yul\":13660:13661   */\n      dup3\n        /* \"#utility.yul\":13657:13658   */\n      dup3\n        /* \"#utility.yul\":13653:13662   */\n      add\n        /* \"#utility.yul\":13646:13662   */\n      swap1\n      pop\n        /* \"#utility.yul\":13681:13684   */\n      dup1\n        /* \"#utility.yul\":13678:13679   */\n      dup3\n        /* \"#utility.yul\":13675:13685   */\n      gt\n        /* \"#utility.yul\":13672:13708   */\n      iszero\n      tag_274\n      jumpi\n        /* \"#utility.yul\":13688:13706   */\n      tag_275\n      tag_133\n      jump\t// in\n    tag_275:\n        /* \"#utility.yul\":13672:13708   */\n    tag_274:\n        /* \"#utility.yul\":13524:13715   */\n      swap3\n      swap2\n      pop\n      pop\n      jump\t// out\n        /* \"#utility.yul\":13721:14138   */\n    tag_90:\n        /* \"#utility.yul\":13859:13863   */\n      0x00\n        /* \"#utility.yul\":13897:13899   */\n      0x40\n        /* \"#utility.yul\":13886:13895   */\n      dup3\n        /* \"#utility.yul\":13882:13900   */\n      add\n        /* \"#utility.yul\":13874:13900   */\n      swap1\n      pop\n        /* \"#utility.yul\":13946:13955   */\n      dup2\n        /* \"#utility.yul\":13940:13944   */\n      dup2\n        /* \"#utility.yul\":13936:13956   */\n      sub\n        /* \"#utility.yul\":13932:13933   */\n      0x00\n        /* \"#utility.yul\":13921:13930   */\n      dup4\n        /* \"#utility.yul\":13917:13934   */\n      add\n        /* \"#utility.yul\":13910:13957   */\n      mstore\n        /* \"#utility.yul\":13974:14049   */\n      tag_277\n        /* \"#utility.yul\":14044:14048   */\n      dup2\n        /* \"#utility.yul\":14035:14041   */\n      dup6\n        /* \"#utility.yul\":13974:14049   */\n      tag_128\n      jump\t// in\n    tag_277:\n        /* \"#utility.yul\":13966:14049   */\n      swap1\n      pop\n        /* \"#utility.yul\":14059:14131   */\n      tag_278\n        /* \"#utility.yul\":14127:14129   */\n      0x20\n        /* \"#utility.yul\":14116:14125   */\n      dup4\n        /* \"#utility.yul\":14112:14130   */\n      add\n        /* \"#utility.yul\":14103:14109   */\n      dup5\n        /* \"#utility.yul\":14059:14131   */\n      tag_97\n      jump\t// in\n    tag_278:\n        /* \"#utility.yul\":13721:14138   */\n      swap4\n      swap3\n      pop\n      pop\n      pop\n      jump\t// out\n\n    auxdata: 0xa2646970667358221220efa4f2e7dabd6cb9bc674321a490a48b0f5f0937c72a96d98bfb90f1b010fc4a64736f6c63430008120033\n}\n",
				"bytecode": {
					"linkReferences": {},
					"object": "60806040526040518060400160405280600681526020017f4f70656e65640000000000000000000000000000000000000000000000000000815250600490816200004a919062000380565b503480156200005857600080fd5b506040516200155a3803806200155a83398181016040528101906200007e9190620005fc565b83600090816200008f919062000380565b508260019081620000a1919062000380565b508160029081620000b3919062000380565b508060068190555033600360006101000a81548173ffffffffffffffffffffffffffffffffffffffff021916908373ffffffffffffffffffffffffffffffffffffffff16021790555050505050620006cb565b600081519050919050565b7f4e487b7100000000000000000000000000000000000000000000000000000000600052604160045260246000fd5b7f4e487b7100000000000000000000000000000000000000000000000000000000600052602260045260246000fd5b600060028204905060018216806200018857607f821691505b6020821081036200019e576200019d62000140565b5b50919050565b60008190508160005260206000209050919050565b60006020601f8301049050919050565b600082821b905092915050565b600060088302620002087fffffffffffffffffffffffffffffffffffffffffffffffffffffffffffffffff82620001c9565b620002148683620001c9565b95508019841693508086168417925050509392505050565b6000819050919050565b6000819050919050565b6000620002616200025b62000255846200022c565b62000236565b6200022c565b9050919050565b6000819050919050565b6200027d8362000240565b620002956200028c8262000268565b848454620001d6565b825550505050565b600090565b620002ac6200029d565b620002b981848462000272565b505050565b5b81811015620002e157620002d5600082620002a2565b600181019050620002bf565b5050565b601f8211156200033057620002fa81620001a4565b6200030584620001b9565b8101602085101562000315578190505b6200032d6200032485620001b9565b830182620002be565b50505b505050565b600082821c905092915050565b6000620003556000198460080262000335565b1980831691505092915050565b600062000370838362000342565b9150826002028217905092915050565b6200038b8262000106565b67ffffffffffffffff811115620003a757620003a662000111565b5b620003b382546200016f565b620003c0828285620002e5565b600060209050601f831160018114620003f85760008415620003e3578287015190505b620003ef858262000362565b8655506200045f565b601f1984166200040886620001a4565b60005b8281101562000432578489015182556001820191506020850194506020810190506200040b565b868310156200045257848901516200044e601f89168262000342565b8355505b6001600288020188555050505b505050505050565b6000604051905090565b600080fd5b600080fd5b600080fd5b600080fd5b6000601f19601f8301169050919050565b620004a18262000485565b810181811067ffffffffffffffff82111715620004c357620004c262000111565b5b80604052505050565b6000620004d862000467565b9050620004e6828262000496565b919050565b600067ffffffffffffffff82111562000509576200050862000111565b5b620005148262000485565b9050602081019050919050565b60005b838110156200054157808201518184015260208101905062000524565b60008484015250505050565b6000620005646200055e84620004eb565b620004cc565b90508281526020810184848401111562000583576200058262000480565b5b6200059084828562000521565b509392505050565b600082601f830112620005b057620005af6200047b565b5b8151620005c28482602086016200054d565b91505092915050565b620005d6816200022c565b8114620005e257600080fd5b50565b600081519050620005f681620005cb565b92915050565b6000806000806080858703121562000619576200061862000471565b5b600085015167ffffffffffffffff8111156200063a576200063962000476565b5b620006488782880162000598565b945050602085015167ffffffffffffffff8111156200066c576200066b62000476565b5b6200067a8782880162000598565b935050604085015167ffffffffffffffff8111156200069e576200069d62000476565b5b620006ac8782880162000598565b9250506060620006bf87828801620005e5565b91505092959194509250565b610e7f80620006db6000396000f3fe6080604052600436106100865760003560e01c8063af640d0f11610059578063af640d0f14610137578063b767050d14610162578063c19d93fb1461018b578063c89f2ce4146101b6578063d63dc661146101e157610086565b806306fdde031461008b5780637284e416146100b65780639e7b08d5146100e1578063a6c3e6b91461010c575b600080fd5b34801561009757600080fd5b506100a06101eb565b6040516100ad9190610715565b60405180910390f35b3480156100c257600080fd5b506100cb610279565b6040516100d89190610715565b60405180910390f35b3480156100ed57600080fd5b506100f6610307565b6040516101039190610750565b60405180910390f35b34801561011857600080fd5b5061012161030d565b60405161012e91906107ac565b60405180910390f35b34801561014357600080fd5b5061014c610333565b6040516101599190610715565b60405180910390f35b34801561016e57600080fd5b5061018960048036038101906101849190610836565b6103c1565b005b34801561019757600080fd5b506101a06104a3565b6040516101ad9190610715565b60405180910390f35b3480156101c257600080fd5b506101cb610531565b6040516101d89190610750565b60405180910390f35b6101e9610537565b005b600180546101f8906108b2565b80601f0160208091040260200160405190810160405280929190818152602001828054610224906108b2565b80156102715780601f1061024657610100808354040283529160200191610271565b820191906000526020600020905b81548152906001019060200180831161025457829003601f168201915b505050505081565b60028054610286906108b2565b80601f01602080910402602001604051908101604052809291908181526020018280546102b2906108b2565b80156102ff5780601f106102d4576101008083540402835291602001916102ff565b820191906000526020600020905b8154815290600101906020018083116102e257829003601f168201915b505050505081565b60065481565b600360009054906101000a900473ffffffffffffffffffffffffffffffffffffffff1681565b60008054610340906108b2565b80601f016020809104026020016040519081016040528092919081815260200182805461036c906108b2565b80156103b95780601f1061038e576101008083540402835291602001916103b9565b820191906000526020600020905b81548152906001019060200180831161039c57829003601f168201915b505050505081565b3373ffffffffffffffffffffffffffffffffffffffff16600360009054906101000a900473ffffffffffffffffffffffffffffffffffffffff1673ffffffffffffffffffffffffffffffffffffffff1614610451576040517f08c379a000000000000000000000000000000000000000000000000000000000815260040161044890610955565b60405180910390fd5b818160049182610462929190610b5b565b507f1bef70a18185328210f7b8cc166c868397812fd89b3e7312515e90afdbb9020c6000838360405161049793929190610ceb565b60405180910390a15050565b600480546104b0906108b2565b80601f01602080910402602001604051908101604052809291908181526020018280546104dc906108b2565b80156105295780601f106104fe57610100808354040283529160200191610529565b820191906000526020600020905b81548152906001019060200180831161050c57829003601f168201915b505050505081565b60055481565b3373ffffffffffffffffffffffffffffffffffffffff16600360009054906101000a900473ffffffffffffffffffffffffffffffffffffffff1673ffffffffffffffffffffffffffffffffffffffff16036105c7576040517f08c379a00000000000000000000000000000000000000000000000000000000081526004016105be90610d96565b60405180910390fd5b600360009054906101000a900473ffffffffffffffffffffffffffffffffffffffff1673ffffffffffffffffffffffffffffffffffffffff166108fc349081150290604051600060405180830381858888f1935050505015801561062f573d6000803e3d6000fd5b5034600560008282546106429190610de5565b925050819055507f925c00924682e835f48a31e5b83cb323934f40a811c5a8f44a662915035033c660003460405161067b929190610e19565b60405180910390a1565b600081519050919050565b600082825260208201905092915050565b60005b838110156106bf5780820151818401526020810190506106a4565b60008484015250505050565b6000601f19601f8301169050919050565b60006106e782610685565b6106f18185610690565b93506107018185602086016106a1565b61070a816106cb565b840191505092915050565b6000602082019050818103600083015261072f81846106dc565b905092915050565b6000819050919050565b61074a81610737565b82525050565b60006020820190506107656000830184610741565b92915050565b600073ffffffffffffffffffffffffffffffffffffffff82169050919050565b60006107968261076b565b9050919050565b6107a68161078b565b82525050565b60006020820190506107c1600083018461079d565b92915050565b600080fd5b600080fd5b600080fd5b600080fd5b600080fd5b60008083601f8401126107f6576107f56107d1565b5b8235905067ffffffffffffffff811115610813576108126107d6565b5b60208301915083600182028301111561082f5761082e6107db565b5b9250929050565b6000806020838503121561084d5761084c6107c7565b5b600083013567ffffffffffffffff81111561086b5761086a6107cc565b5b610877858286016107e0565b92509250509250929050565b7f4e487b7100000000000000000000000000000000000000000000000000000000600052602260045260246000fd5b600060028204905060018216806108ca57607f821691505b6020821081036108dd576108dc610883565b5b50919050565b7f596f75206e65656420746f206265207468652070726f6a65637420617574686f60008201527f7200000000000000000000000000000000000000000000000000000000000000602082015250565b600061093f602183610690565b915061094a826108e3565b604082019050919050565b6000602082019050818103600083015261096e81610932565b9050919050565b600082905092915050565b7f4e487b7100000000000000000000000000000000000000000000000000000000600052604160045260246000fd5b60008190508160005260206000209050919050565b60006020601f8301049050919050565b600082821b905092915050565b600060088302610a117fffffffffffffffffffffffffffffffffffffffffffffffffffffffffffffffff826109d4565b610a1b86836109d4565b95508019841693508086168417925050509392505050565b6000819050919050565b6000610a58610a53610a4e84610737565b610a33565b610737565b9050919050565b6000819050919050565b610a7283610a3d565b610a86610a7e82610a5f565b8484546109e1565b825550505050565b600090565b610a9b610a8e565b610aa6818484610a69565b505050565b5b81811015610aca57610abf600082610a93565b600181019050610aac565b5050565b601f821115610b0f57610ae0816109af565b610ae9846109c4565b81016020851015610af8578190505b610b0c610b04856109c4565b830182610aab565b50505b505050565b600082821c905092915050565b6000610b3260001984600802610b14565b1980831691505092915050565b6000610b4b8383610b21565b9150826002028217905092915050565b610b658383610975565b67ffffffffffffffff811115610b7e57610b7d610980565b5b610b8882546108b2565b610b93828285610ace565b6000601f831160018114610bc25760008415610bb0578287013590505b610bba8582610b3f565b865550610c22565b601f198416610bd0866109af565b60005b82811015610bf857848901358255600182019150602085019450602081019050610bd3565b86831015610c155784890135610c11601f891682610b21565b8355505b6001600288020188555050505b50505050505050565b60008154610c38816108b2565b610c428186610690565b94506001821660008114610c5d5760018114610c7357610ca6565b60ff198316865281151560200286019350610ca6565b610c7c856109af565b60005b83811015610c9e57815481890152600182019150602081019050610c7f565b808801955050505b50505092915050565b82818337600083830152505050565b6000610cca8385610690565b9350610cd7838584610caf565b610ce0836106cb565b840190509392505050565b60006040820190508181036000830152610d058186610c2b565b90508181036020830152610d1a818486610cbe565b9050949350505050565b7f417320617574686f7220796f752063616e206e6f742066756e6420796f75722060008201527f6f776e2070726f6a656374000000000000000000000000000000000000000000602082015250565b6000610d80602b83610690565b9150610d8b82610d24565b604082019050919050565b60006020820190508181036000830152610daf81610d73565b9050919050565b7f4e487b7100000000000000000000000000000000000000000000000000000000600052601160045260246000fd5b6000610df082610737565b9150610dfb83610737565b9250828201905080821115610e1357610e12610db6565b5b92915050565b60006040820190508181036000830152610e338185610c2b565b9050610e426020830184610741565b939250505056fea2646970667358221220efa4f2e7dabd6cb9bc674321a490a48b0f5f0937c72a96d98bfb90f1b010fc4a64736f6c63430008120033",
					"opcodes": "PUSH1 0x80 PUSH1 0x40 MSTORE PUSH1 0x40 MLOAD DUP1 PUSH1 0x40 ADD PUSH1 0x40 MSTORE DUP1 PUSH1 0x6 DUP2 MSTORE PUSH1 0x20 ADD PUSH32 0x4F70656E65640000000000000000000000000000000000000000000000000000 DUP2 MSTORE POP PUSH1 0x4 SWAP1 DUP2 PUSH3 0x4A SWAP2 SWAP1 PUSH3 0x380 JUMP JUMPDEST POP CALLVALUE DUP1 ISZERO PUSH3 0x58 JUMPI PUSH1 0x0 DUP1 REVERT JUMPDEST POP PUSH1 0x40 MLOAD PUSH3 0x155A CODESIZE SUB DUP1 PUSH3 0x155A DUP4 CODECOPY DUP2 DUP2 ADD PUSH1 0x40 MSTORE DUP2 ADD SWAP1 PUSH3 0x7E SWAP2 SWAP1 PUSH3 0x5FC JUMP JUMPDEST DUP4 PUSH1 0x0 SWAP1 DUP2 PUSH3 0x8F SWAP2 SWAP1 PUSH3 0x380 JUMP JUMPDEST POP DUP3 PUSH1 0x1 SWAP1 DUP2 PUSH3 0xA1 SWAP2 SWAP1 PUSH3 0x380 JUMP JUMPDEST POP DUP2 PUSH1 0x2 SWAP1 DUP2 PUSH3 0xB3 SWAP2 SWAP1 PUSH3 0x380 JUMP JUMPDEST POP DUP1 PUSH1 0x6 DUP2 SWAP1 SSTORE POP CALLER PUSH1 0x3 PUSH1 0x0 PUSH2 0x100 EXP DUP2 SLOAD DUP2 PUSH20 0xFFFFFFFFFFFFFFFFFFFFFFFFFFFFFFFFFFFFFFFF MUL NOT AND SWAP1 DUP4 PUSH20 0xFFFFFFFFFFFFFFFFFFFFFFFFFFFFFFFFFFFFFFFF AND MUL OR SWAP1 SSTORE POP POP POP POP POP PUSH3 0x6CB JUMP JUMPDEST PUSH1 0x0 DUP2 MLOAD SWAP1 POP SWAP2 SWAP1 POP JUMP JUMPDEST PUSH32 0x4E487B7100000000000000000000000000000000000000000000000000000000 PUSH1 0x0 MSTORE PUSH1 0x41 PUSH1 0x4 MSTORE PUSH1 0x24 PUSH1 0x0 REVERT JUMPDEST PUSH32 0x4E487B7100000000000000000000000000000000000000000000000000000000 PUSH1 0x0 MSTORE PUSH1 0x22 PUSH1 0x4 MSTORE PUSH1 0x24 PUSH1 0x0 REVERT JUMPDEST PUSH1 0x0 PUSH1 0x2 DUP3 DIV SWAP1 POP PUSH1 0x1 DUP3 AND DUP1 PUSH3 0x188 JUMPI PUSH1 0x7F DUP3 AND SWAP2 POP JUMPDEST PUSH1 0x20 DUP3 LT DUP2 SUB PUSH3 0x19E JUMPI PUSH3 0x19D PUSH3 0x140 JUMP JUMPDEST JUMPDEST POP SWAP2 SWAP1 POP JUMP JUMPDEST PUSH1 0x0 DUP2 SWAP1 POP DUP2 PUSH1 0x0 MSTORE PUSH1 0x20 PUSH1 0x0 KECCAK256 SWAP1 POP SWAP2 SWAP1 POP JUMP JUMPDEST PUSH1 0x0 PUSH1 0x20 PUSH1 0x1F DUP4 ADD DIV SWAP1 POP SWAP2 SWAP1 POP JUMP JUMPDEST PUSH1 0x0 DUP3 DUP3 SHL SWAP1 POP SWAP3 SWAP2 POP POP JUMP JUMPDEST PUSH1 0x0 PUSH1 0x8 DUP4 MUL PUSH3 0x208 PUSH32 0xFFFFFFFFFFFFFFFFFFFFFFFFFFFFFFFFFFFFFFFFFFFFFFFFFFFFFFFFFFFFFFFF DUP3 PUSH3 0x1C9 JUMP JUMPDEST PUSH3 0x214 DUP7 DUP4 PUSH3 0x1C9 JUMP JUMPDEST SWAP6 POP DUP1 NOT DUP5 AND SWAP4 POP DUP1 DUP7 AND DUP5 OR SWAP3 POP POP POP SWAP4 SWAP3 POP POP POP JUMP JUMPDEST PUSH1 0x0 DUP2 SWAP1 POP SWAP2 SWAP1 POP JUMP JUMPDEST PUSH1 0x0 DUP2 SWAP1 POP SWAP2 SWAP1 POP JUMP JUMPDEST PUSH1 0x0 PUSH3 0x261 PUSH3 0x25B PUSH3 0x255 DUP5 PUSH3 0x22C JUMP JUMPDEST PUSH3 0x236 JUMP JUMPDEST PUSH3 0x22C JUMP JUMPDEST SWAP1 POP SWAP2 SWAP1 POP JUMP JUMPDEST PUSH1 0x0 DUP2 SWAP1 POP SWAP2 SWAP1 POP JUMP JUMPDEST PUSH3 0x27D DUP4 PUSH3 0x240 JUMP JUMPDEST PUSH3 0x295 PUSH3 0x28C DUP3 PUSH3 0x268 JUMP JUMPDEST DUP5 DUP5 SLOAD PUSH3 0x1D6 JUMP JUMPDEST DUP3 SSTORE POP POP POP POP JUMP JUMPDEST PUSH1 0x0 SWAP1 JUMP JUMPDEST PUSH3 0x2AC PUSH3 0x29D JUMP JUMPDEST PUSH3 0x2B9 DUP2 DUP5 DUP5 PUSH3 0x272 JUMP JUMPDEST POP POP POP JUMP JUMPDEST JUMPDEST DUP2 DUP2 LT ISZERO PUSH3 0x2E1 JUMPI PUSH3 0x2D5 PUSH1 0x0 DUP3 PUSH3 0x2A2 JUMP JUMPDEST PUSH1 0x1 DUP2 ADD SWAP1 POP PUSH3 0x2BF JUMP JUMPDEST POP POP JUMP JUMPDEST PUSH1 0x1F DUP3 GT ISZERO PUSH3 0x330 JUMPI PUSH3 0x2FA DUP2 PUSH3 0x1A4 JUMP JUMPDEST PUSH3 0x305 DUP5 PUSH3 0x1B9 JUMP JUMPDEST DUP2 ADD PUSH1 0x20 DUP6 LT ISZERO PUSH3 0x315 JUMPI DUP2 SWAP1 POP JUMPDEST PUSH3 0x32D PUSH3 0x324 DUP6 PUSH3 0x1B9 JUMP JUMPDEST DUP4 ADD DUP3 PUSH3 0x2BE JUMP JUMPDEST POP POP JUMPDEST POP POP POP JUMP JUMPDEST PUSH1 0x0 DUP3 DUP3 SHR SWAP1 POP SWAP3 SWAP2 POP POP JUMP JUMPDEST PUSH1 0x0 PUSH3 0x355 PUSH1 0x0 NOT DUP5 PUSH1 0x8 MUL PUSH3 0x335 JUMP JUMPDEST NOT DUP1 DUP4 AND SWAP2 POP POP SWAP3 SWAP2 POP POP JUMP JUMPDEST PUSH1 0x0 PUSH3 0x370 DUP4 DUP4 PUSH3 0x342 JUMP JUMPDEST SWAP2 POP DUP3 PUSH1 0x2 MUL DUP3 OR SWAP1 POP SWAP3 SWAP2 POP POP JUMP JUMPDEST PUSH3 0x38B DUP3 PUSH3 0x106 JUMP JUMPDEST PUSH8 0xFFFFFFFFFFFFFFFF DUP2 GT ISZERO PUSH3 0x3A7 JUMPI PUSH3 0x3A6 PUSH3 0x111 JUMP JUMPDEST JUMPDEST PUSH3 0x3B3 DUP3 SLOAD PUSH3 0x16F JUMP JUMPDEST PUSH3 0x3C0 DUP3 DUP3 DUP6 PUSH3 0x2E5 JUMP JUMPDEST PUSH1 0x0 PUSH1 0x20 SWAP1 POP PUSH1 0x1F DUP4 GT PUSH1 0x1 DUP2 EQ PUSH3 0x3F8 JUMPI PUSH1 0x0 DUP5 ISZERO PUSH3 0x3E3 JUMPI DUP3 DUP8 ADD MLOAD SWAP1 POP JUMPDEST PUSH3 0x3EF DUP6 DUP3 PUSH3 0x362 JUMP JUMPDEST DUP7 SSTORE POP PUSH3 0x45F JUMP JUMPDEST PUSH1 0x1F NOT DUP5 AND PUSH3 0x408 DUP7 PUSH3 0x1A4 JUMP JUMPDEST PUSH1 0x0 JUMPDEST DUP3 DUP2 LT ISZERO PUSH3 0x432 JUMPI DUP5 DUP10 ADD MLOAD DUP3 SSTORE PUSH1 0x1 DUP3 ADD SWAP2 POP PUSH1 0x20 DUP6 ADD SWAP5 POP PUSH1 0x20 DUP2 ADD SWAP1 POP PUSH3 0x40B JUMP JUMPDEST DUP7 DUP4 LT ISZERO PUSH3 0x452 JUMPI DUP5 DUP10 ADD MLOAD PUSH3 0x44E PUSH1 0x1F DUP10 AND DUP3 PUSH3 0x342 JUMP JUMPDEST DUP4 SSTORE POP JUMPDEST PUSH1 0x1 PUSH1 0x2 DUP9 MUL ADD DUP9 SSTORE POP POP POP JUMPDEST POP POP POP POP POP POP JUMP JUMPDEST PUSH1 0x0 PUSH1 0x40 MLOAD SWAP1 POP SWAP1 JUMP JUMPDEST PUSH1 0x0 DUP1 REVERT JUMPDEST PUSH1 0x0 DUP1 REVERT JUMPDEST PUSH1 0x0 DUP1 REVERT JUMPDEST PUSH1 0x0 DUP1 REVERT JUMPDEST PUSH1 0x0 PUSH1 0x1F NOT PUSH1 0x1F DUP4 ADD AND SWAP1 POP SWAP2 SWAP1 POP JUMP JUMPDEST PUSH3 0x4A1 DUP3 PUSH3 0x485 JUMP JUMPDEST DUP2 ADD DUP2 DUP2 LT PUSH8 0xFFFFFFFFFFFFFFFF DUP3 GT OR ISZERO PUSH3 0x4C3 JUMPI PUSH3 0x4C2 PUSH3 0x111 JUMP JUMPDEST JUMPDEST DUP1 PUSH1 0x40 MSTORE POP POP POP JUMP JUMPDEST PUSH1 0x0 PUSH3 0x4D8 PUSH3 0x467 JUMP JUMPDEST SWAP1 POP PUSH3 0x4E6 DUP3 DUP3 PUSH3 0x496 JUMP JUMPDEST SWAP2 SWAP1 POP JUMP JUMPDEST PUSH1 0x0 PUSH8 0xFFFFFFFFFFFFFFFF DUP3 GT ISZERO PUSH3 0x509 JUMPI PUSH3 0x508 PUSH3 0x111 JUMP JUMPDEST JUMPDEST PUSH3 0x514 DUP3 PUSH3 0x485 JUMP JUMPDEST SWAP1 POP PUSH1 0x20 DUP2 ADD SWAP1 POP SWAP2 SWAP1 POP JUMP JUMPDEST PUSH1 0x0 JUMPDEST DUP4 DUP2 LT ISZERO PUSH3 0x541 JUMPI DUP1 DUP3 ADD MLOAD DUP2 DUP5 ADD MSTORE PUSH1 0x20 DUP2 ADD SWAP1 POP PUSH3 0x524 JUMP JUMPDEST PUSH1 0x0 DUP5 DUP5 ADD MSTORE POP POP POP POP JUMP JUMPDEST PUSH1 0x0 PUSH3 0x564 PUSH3 0x55E DUP5 PUSH3 0x4EB JUMP JUMPDEST PUSH3 0x4CC JUMP JUMPDEST SWAP1 POP DUP3 DUP2 MSTORE PUSH1 0x20 DUP2 ADD DUP5 DUP5 DUP5 ADD GT ISZERO PUSH3 0x583 JUMPI PUSH3 0x582 PUSH3 0x480 JUMP JUMPDEST JUMPDEST PUSH3 0x590 DUP5 DUP3 DUP6 PUSH3 0x521 JUMP JUMPDEST POP SWAP4 SWAP3 POP POP POP JUMP JUMPDEST PUSH1 0x0 DUP3 PUSH1 0x1F DUP4 ADD SLT PUSH3 0x5B0 JUMPI PUSH3 0x5AF PUSH3 0x47B JUMP JUMPDEST JUMPDEST DUP2 MLOAD PUSH3 0x5C2 DUP5 DUP3 PUSH1 0x20 DUP7 ADD PUSH3 0x54D JUMP JUMPDEST SWAP2 POP POP SWAP3 SWAP2 POP POP JUMP JUMPDEST PUSH3 0x5D6 DUP2 PUSH3 0x22C JUMP JUMPDEST DUP2 EQ PUSH3 0x5E2 JUMPI PUSH1 0x0 DUP1 REVERT JUMPDEST POP JUMP JUMPDEST PUSH1 0x0 DUP2 MLOAD SWAP1 POP PUSH3 0x5F6 DUP2 PUSH3 0x5CB JUMP JUMPDEST SWAP3 SWAP2 POP POP JUMP JUMPDEST PUSH1 0x0 DUP1 PUSH1 0x0 DUP1 PUSH1 0x80 DUP6 DUP8 SUB SLT ISZERO PUSH3 0x619 JUMPI PUSH3 0x618 PUSH3 0x471 JUMP JUMPDEST JUMPDEST PUSH1 0x0 DUP6 ADD MLOAD PUSH8 0xFFFFFFFFFFFFFFFF DUP2 GT ISZERO PUSH3 0x63A JUMPI PUSH3 0x639 PUSH3 0x476 JUMP JUMPDEST JUMPDEST PUSH3 0x648 DUP8 DUP3 DUP9 ADD PUSH3 0x598 JUMP JUMPDEST SWAP5 POP POP PUSH1 0x20 DUP6 ADD MLOAD PUSH8 0xFFFFFFFFFFFFFFFF DUP2 GT ISZERO PUSH3 0x66C JUMPI PUSH3 0x66B PUSH3 0x476 JUMP JUMPDEST JUMPDEST PUSH3 0x67A DUP8 DUP3 DUP9 ADD PUSH3 0x598 JUMP JUMPDEST SWAP4 POP POP PUSH1 0x40 DUP6 ADD MLOAD PUSH8 0xFFFFFFFFFFFFFFFF DUP2 GT ISZERO PUSH3 0x69E JUMPI PUSH3 0x69D PUSH3 0x476 JUMP JUMPDEST JUMPDEST PUSH3 0x6AC DUP8 DUP3 DUP9 ADD PUSH3 0x598 JUMP JUMPDEST SWAP3 POP POP PUSH1 0x60 PUSH3 0x6BF DUP8 DUP3 DUP9 ADD PUSH3 0x5E5 JUMP JUMPDEST SWAP2 POP POP SWAP3 SWAP6 SWAP2 SWAP5 POP SWAP3 POP JUMP JUMPDEST PUSH2 0xE7F DUP1 PUSH3 0x6DB PUSH1 0x0 CODECOPY PUSH1 0x0 RETURN INVALID PUSH1 0x80 PUSH1 0x40 MSTORE PUSH1 0x4 CALLDATASIZE LT PUSH2 0x86 JUMPI PUSH1 0x0 CALLDATALOAD PUSH1 0xE0 SHR DUP1 PUSH4 0xAF640D0F GT PUSH2 0x59 JUMPI DUP1 PUSH4 0xAF640D0F EQ PUSH2 0x137 JUMPI DUP1 PUSH4 0xB767050D EQ PUSH2 0x162 JUMPI DUP1 PUSH4 0xC19D93FB EQ PUSH2 0x18B JUMPI DUP1 PUSH4 0xC89F2CE4 EQ PUSH2 0x1B6 JUMPI DUP1 PUSH4 0xD63DC661 EQ PUSH2 0x1E1 JUMPI PUSH2 0x86 JUMP JUMPDEST DUP1 PUSH4 0x6FDDE03 EQ PUSH2 0x8B JUMPI DUP1 PUSH4 0x7284E416 EQ PUSH2 0xB6 JUMPI DUP1 PUSH4 0x9E7B08D5 EQ PUSH2 0xE1 JUMPI DUP1 PUSH4 0xA6C3E6B9 EQ PUSH2 0x10C JUMPI JUMPDEST PUSH1 0x0 DUP1 REVERT JUMPDEST CALLVALUE DUP1 ISZERO PUSH2 0x97 JUMPI PUSH1 0x0 DUP1 REVERT JUMPDEST POP PUSH2 0xA0 PUSH2 0x1EB JUMP JUMPDEST PUSH1 0x40 MLOAD PUSH2 0xAD SWAP2 SWAP1 PUSH2 0x715 JUMP JUMPDEST PUSH1 0x40 MLOAD DUP1 SWAP2 SUB SWAP1 RETURN JUMPDEST CALLVALUE DUP1 ISZERO PUSH2 0xC2 JUMPI PUSH1 0x0 DUP1 REVERT JUMPDEST POP PUSH2 0xCB PUSH2 0x279 JUMP JUMPDEST PUSH1 0x40 MLOAD PUSH2 0xD8 SWAP2 SWAP1 PUSH2 0x715 JUMP JUMPDEST PUSH1 0x40 MLOAD DUP1 SWAP2 SUB SWAP1 RETURN JUMPDEST CALLVALUE DUP1 ISZERO PUSH2 0xED JUMPI PUSH1 0x0 DUP1 REVERT JUMPDEST POP PUSH2 0xF6 PUSH2 0x307 JUMP JUMPDEST PUSH1 0x40 MLOAD PUSH2 0x103 SWAP2 SWAP1 PUSH2 0x750 JUMP JUMPDEST PUSH1 0x40 MLOAD DUP1 SWAP2 SUB SWAP1 RETURN JUMPDEST CALLVALUE DUP1 ISZERO PUSH2 0x118 JUMPI PUSH1 0x0 DUP1 REVERT JUMPDEST POP PUSH2 0x121 PUSH2 0x30D JUMP JUMPDEST PUSH1 0x40 MLOAD PUSH2 0x12E SWAP2 SWAP1 PUSH2 0x7AC JUMP JUMPDEST PUSH1 0x40 MLOAD DUP1 SWAP2 SUB SWAP1 RETURN JUMPDEST CALLVALUE DUP1 ISZERO PUSH2 0x143 JUMPI PUSH1 0x0 DUP1 REVERT JUMPDEST POP PUSH2 0x14C PUSH2 0x333 JUMP JUMPDEST PUSH1 0x40 MLOAD PUSH2 0x159 SWAP2 SWAP1 PUSH2 0x715 JUMP JUMPDEST PUSH1 0x40 MLOAD DUP1 SWAP2 SUB SWAP1 RETURN JUMPDEST CALLVALUE DUP1 ISZERO PUSH2 0x16E JUMPI PUSH1 0x0 DUP1 REVERT JUMPDEST POP PUSH2 0x189 PUSH1 0x4 DUP1 CALLDATASIZE SUB DUP2 ADD SWAP1 PUSH2 0x184 SWAP2 SWAP1 PUSH2 0x836 JUMP JUMPDEST PUSH2 0x3C1 JUMP JUMPDEST STOP JUMPDEST CALLVALUE DUP1 ISZERO PUSH2 0x197 JUMPI PUSH1 0x0 DUP1 REVERT JUMPDEST POP PUSH2 0x1A0 PUSH2 0x4A3 JUMP JUMPDEST PUSH1 0x40 MLOAD PUSH2 0x1AD SWAP2 SWAP1 PUSH2 0x715 JUMP JUMPDEST PUSH1 0x40 MLOAD DUP1 SWAP2 SUB SWAP1 RETURN JUMPDEST CALLVALUE DUP1 ISZERO PUSH2 0x1C2 JUMPI PUSH1 0x0 DUP1 REVERT JUMPDEST POP PUSH2 0x1CB PUSH2 0x531 JUMP JUMPDEST PUSH1 0x40 MLOAD PUSH2 0x1D8 SWAP2 SWAP1 PUSH2 0x750 JUMP JUMPDEST PUSH1 0x40 MLOAD DUP1 SWAP2 SUB SWAP1 RETURN JUMPDEST PUSH2 0x1E9 PUSH2 0x537 JUMP JUMPDEST STOP JUMPDEST PUSH1 0x1 DUP1 SLOAD PUSH2 0x1F8 SWAP1 PUSH2 0x8B2 JUMP JUMPDEST DUP1 PUSH1 0x1F ADD PUSH1 0x20 DUP1 SWAP2 DIV MUL PUSH1 0x20 ADD PUSH1 0x40 MLOAD SWAP1 DUP2 ADD PUSH1 0x40 MSTORE DUP1 SWAP3 SWAP2 SWAP1 DUP2 DUP2 MSTORE PUSH1 0x20 ADD DUP3 DUP1 SLOAD PUSH2 0x224 SWAP1 PUSH2 0x8B2 JUMP JUMPDEST DUP1 ISZERO PUSH2 0x271 JUMPI DUP1 PUSH1 0x1F LT PUSH2 0x246 JUMPI PUSH2 0x100 DUP1 DUP4 SLOAD DIV MUL DUP4 MSTORE SWAP2 PUSH1 0x20 ADD SWAP2 PUSH2 0x271 JUMP JUMPDEST DUP3 ADD SWAP2 SWAP1 PUSH1 0x0 MSTORE PUSH1 0x20 PUSH1 0x0 KECCAK256 SWAP1 JUMPDEST DUP2 SLOAD DUP2 MSTORE SWAP1 PUSH1 0x1 ADD SWAP1 PUSH1 0x20 ADD DUP1 DUP4 GT PUSH2 0x254 JUMPI DUP3 SWAP1 SUB PUSH1 0x1F AND DUP3 ADD SWAP2 JUMPDEST POP POP POP POP POP DUP2 JUMP JUMPDEST PUSH1 0x2 DUP1 SLOAD PUSH2 0x286 SWAP1 PUSH2 0x8B2 JUMP JUMPDEST DUP1 PUSH1 0x1F ADD PUSH1 0x20 DUP1 SWAP2 DIV MUL PUSH1 0x20 ADD PUSH1 0x40 MLOAD SWAP1 DUP2 ADD PUSH1 0x40 MSTORE DUP1 SWAP3 SWAP2 SWAP1 DUP2 DUP2 MSTORE PUSH1 0x20 ADD DUP3 DUP1 SLOAD PUSH2 0x2B2 SWAP1 PUSH2 0x8B2 JUMP JUMPDEST DUP1 ISZERO PUSH2 0x2FF JUMPI DUP1 PUSH1 0x1F LT PUSH2 0x2D4 JUMPI PUSH2 0x100 DUP1 DUP4 SLOAD DIV MUL DUP4 MSTORE SWAP2 PUSH1 0x20 ADD SWAP2 PUSH2 0x2FF JUMP JUMPDEST DUP3 ADD SWAP2 SWAP1 PUSH1 0x0 MSTORE PUSH1 0x20 PUSH1 0x0 KECCAK256 SWAP1 JUMPDEST DUP2 SLOAD DUP2 MSTORE SWAP1 PUSH1 0x1 ADD SWAP1 PUSH1 0x20 ADD DUP1 DUP4 GT PUSH2 0x2E2 JUMPI DUP3 SWAP1 SUB PUSH1 0x1F AND DUP3 ADD SWAP2 JUMPDEST POP POP POP POP POP DUP2 JUMP JUMPDEST PUSH1 0x6 SLOAD DUP2 JUMP JUMPDEST PUSH1 0x3 PUSH1 0x0 SWAP1 SLOAD SWAP1 PUSH2 0x100 EXP SWAP1 DIV PUSH20 0xFFFFFFFFFFFFFFFFFFFFFFFFFFFFFFFFFFFFFFFF AND DUP2 JUMP JUMPDEST PUSH1 0x0 DUP1 SLOAD PUSH2 0x340 SWAP1 PUSH2 0x8B2 JUMP JUMPDEST DUP1 PUSH1 0x1F ADD PUSH1 0x20 DUP1 SWAP2 DIV MUL PUSH1 0x20 ADD PUSH1 0x40 MLOAD SWAP1 DUP2 ADD PUSH1 0x40 MSTORE DUP1 SWAP3 SWAP2 SWAP1 DUP2 DUP2 MSTORE PUSH1 0x20 ADD DUP3 DUP1 SLOAD PUSH2 0x36C SWAP1 PUSH2 0x8B2 JUMP JUMPDEST DUP1 ISZERO PUSH2 0x3B9 JUMPI DUP1 PUSH1 0x1F LT PUSH2 0x38E JUMPI PUSH2 0x100 DUP1 DUP4 SLOAD DIV MUL DUP4 MSTORE SWAP2 PUSH1 0x20 ADD SWAP2 PUSH2 0x3B9 JUMP JUMPDEST DUP3 ADD SWAP2 SWAP1 PUSH1 0x0 MSTORE PUSH1 0x20 PUSH1 0x0 KECCAK256 SWAP1 JUMPDEST DUP2 SLOAD DUP2 MSTORE SWAP1 PUSH1 0x1 ADD SWAP1 PUSH1 0x20 ADD DUP1 DUP4 GT PUSH2 0x39C JUMPI DUP3 SWAP1 SUB PUSH1 0x1F AND DUP3 ADD SWAP2 JUMPDEST POP POP POP POP POP DUP2 JUMP JUMPDEST CALLER PUSH20 0xFFFFFFFFFFFFFFFFFFFFFFFFFFFFFFFFFFFFFFFF AND PUSH1 0x3 PUSH1 0x0 SWAP1 SLOAD SWAP1 PUSH2 0x100 EXP SWAP1 DIV PUSH20 0xFFFFFFFFFFFFFFFFFFFFFFFFFFFFFFFFFFFFFFFF AND PUSH20 0xFFFFFFFFFFFFFFFFFFFFFFFFFFFFFFFFFFFFFFFF AND EQ PUSH2 0x451 JUMPI PUSH1 0x40 MLOAD PUSH32 0x8C379A000000000000000000000000000000000000000000000000000000000 DUP2 MSTORE PUSH1 0x4 ADD PUSH2 0x448 SWAP1 PUSH2 0x955 JUMP JUMPDEST PUSH1 0x40 MLOAD DUP1 SWAP2 SUB SWAP1 REVERT JUMPDEST DUP2 DUP2 PUSH1 0x4 SWAP2 DUP3 PUSH2 0x462 SWAP3 SWAP2 SWAP1 PUSH2 0xB5B JUMP JUMPDEST POP PUSH32 0x1BEF70A18185328210F7B8CC166C868397812FD89B3E7312515E90AFDBB9020C PUSH1 0x0 DUP4 DUP4 PUSH1 0x40 MLOAD PUSH2 0x497 SWAP4 SWAP3 SWAP2 SWAP1 PUSH2 0xCEB JUMP JUMPDEST PUSH1 0x40 MLOAD DUP1 SWAP2 SUB SWAP1 LOG1 POP POP JUMP JUMPDEST PUSH1 0x4 DUP1 SLOAD PUSH2 0x4B0 SWAP1 PUSH2 0x8B2 JUMP JUMPDEST DUP1 PUSH1 0x1F ADD PUSH1 0x20 DUP1 SWAP2 DIV MUL PUSH1 0x20 ADD PUSH1 0x40 MLOAD SWAP1 DUP2 ADD PUSH1 0x40 MSTORE DUP1 SWAP3 SWAP2 SWAP1 DUP2 DUP2 MSTORE PUSH1 0x20 ADD DUP3 DUP1 SLOAD PUSH2 0x4DC SWAP1 PUSH2 0x8B2 JUMP JUMPDEST DUP1 ISZERO PUSH2 0x529 JUMPI DUP1 PUSH1 0x1F LT PUSH2 0x4FE JUMPI PUSH2 0x100 DUP1 DUP4 SLOAD DIV MUL DUP4 MSTORE SWAP2 PUSH1 0x20 ADD SWAP2 PUSH2 0x529 JUMP JUMPDEST DUP3 ADD SWAP2 SWAP1 PUSH1 0x0 MSTORE PUSH1 0x20 PUSH1 0x0 KECCAK256 SWAP1 JUMPDEST DUP2 SLOAD DUP2 MSTORE SWAP1 PUSH1 0x1 ADD SWAP1 PUSH1 0x20 ADD DUP1 DUP4 GT PUSH2 0x50C JUMPI DUP3 SWAP1 SUB PUSH1 0x1F AND DUP3 ADD SWAP2 JUMPDEST POP POP POP POP POP DUP2 JUMP JUMPDEST PUSH1 0x5 SLOAD DUP2 JUMP JUMPDEST CALLER PUSH20 0xFFFFFFFFFFFFFFFFFFFFFFFFFFFFFFFFFFFFFFFF AND PUSH1 0x3 PUSH1 0x0 SWAP1 SLOAD SWAP1 PUSH2 0x100 EXP SWAP1 DIV PUSH20 0xFFFFFFFFFFFFFFFFFFFFFFFFFFFFFFFFFFFFFFFF AND PUSH20 0xFFFFFFFFFFFFFFFFFFFFFFFFFFFFFFFFFFFFFFFF AND SUB PUSH2 0x5C7 JUMPI PUSH1 0x40 MLOAD PUSH32 0x8C379A000000000000000000000000000000000000000000000000000000000 DUP2 MSTORE PUSH1 0x4 ADD PUSH2 0x5BE SWAP1 PUSH2 0xD96 JUMP JUMPDEST PUSH1 0x40 MLOAD DUP1 SWAP2 SUB SWAP1 REVERT JUMPDEST PUSH1 0x3 PUSH1 0x0 SWAP1 SLOAD SWAP1 PUSH2 0x100 EXP SWAP1 DIV PUSH20 0xFFFFFFFFFFFFFFFFFFFFFFFFFFFFFFFFFFFFFFFF AND PUSH20 0xFFFFFFFFFFFFFFFFFFFFFFFFFFFFFFFFFFFFFFFF AND PUSH2 0x8FC CALLVALUE SWAP1 DUP2 ISZERO MUL SWAP1 PUSH1 0x40 MLOAD PUSH1 0x0 PUSH1 0x40 MLOAD DUP1 DUP4 SUB DUP2 DUP6 DUP9 DUP9 CALL SWAP4 POP POP POP POP ISZERO DUP1 ISZERO PUSH2 0x62F JUMPI RETURNDATASIZE PUSH1 0x0 DUP1 RETURNDATACOPY RETURNDATASIZE PUSH1 0x0 REVERT JUMPDEST POP CALLVALUE PUSH1 0x5 PUSH1 0x0 DUP3 DUP3 SLOAD PUSH2 0x642 SWAP2 SWAP1 PUSH2 0xDE5 JUMP JUMPDEST SWAP3 POP POP DUP2 SWAP1 SSTORE POP PUSH32 0x925C00924682E835F48A31E5B83CB323934F40A811C5A8F44A662915035033C6 PUSH1 0x0 CALLVALUE PUSH1 0x40 MLOAD PUSH2 0x67B SWAP3 SWAP2 SWAP1 PUSH2 0xE19 JUMP JUMPDEST PUSH1 0x40 MLOAD DUP1 SWAP2 SUB SWAP1 LOG1 JUMP JUMPDEST PUSH1 0x0 DUP2 MLOAD SWAP1 POP SWAP2 SWAP1 POP JUMP JUMPDEST PUSH1 0x0 DUP3 DUP3 MSTORE PUSH1 0x20 DUP3 ADD SWAP1 POP SWAP3 SWAP2 POP POP JUMP JUMPDEST PUSH1 0x0 JUMPDEST DUP4 DUP2 LT ISZERO PUSH2 0x6BF JUMPI DUP1 DUP3 ADD MLOAD DUP2 DUP5 ADD MSTORE PUSH1 0x20 DUP2 ADD SWAP1 POP PUSH2 0x6A4 JUMP JUMPDEST PUSH1 0x0 DUP5 DUP5 ADD MSTORE POP POP POP POP JUMP JUMPDEST PUSH1 0x0 PUSH1 0x1F NOT PUSH1 0x1F DUP4 ADD AND SWAP1 POP SWAP2 SWAP1 POP JUMP JUMPDEST PUSH1 0x0 PUSH2 0x6E7 DUP3 PUSH2 0x685 JUMP JUMPDEST PUSH2 0x6F1 DUP2 DUP6 PUSH2 0x690 JUMP JUMPDEST SWAP4 POP PUSH2 0x701 DUP2 DUP6 PUSH1 0x20 DUP7 ADD PUSH2 0x6A1 JUMP JUMPDEST PUSH2 0x70A DUP2 PUSH2 0x6CB JUMP JUMPDEST DUP5 ADD SWAP2 POP POP SWAP3 SWAP2 POP POP JUMP JUMPDEST PUSH1 0x0 PUSH1 0x20 DUP3 ADD SWAP1 POP DUP2 DUP2 SUB PUSH1 0x0 DUP4 ADD MSTORE PUSH2 0x72F DUP2 DUP5 PUSH2 0x6DC JUMP JUMPDEST SWAP1 POP SWAP3 SWAP2 POP POP JUMP JUMPDEST PUSH1 0x0 DUP2 SWAP1 POP SWAP2 SWAP1 POP JUMP JUMPDEST PUSH2 0x74A DUP2 PUSH2 0x737 JUMP JUMPDEST DUP3 MSTORE POP POP JUMP JUMPDEST PUSH1 0x0 PUSH1 0x20 DUP3 ADD SWAP1 POP PUSH2 0x765 PUSH1 0x0 DUP4 ADD DUP5 PUSH2 0x741 JUMP JUMPDEST SWAP3 SWAP2 POP POP JUMP JUMPDEST PUSH1 0x0 PUSH20 0xFFFFFFFFFFFFFFFFFFFFFFFFFFFFFFFFFFFFFFFF DUP3 AND SWAP1 POP SWAP2 SWAP1 POP JUMP JUMPDEST PUSH1 0x0 PUSH2 0x796 DUP3 PUSH2 0x76B JUMP JUMPDEST SWAP1 POP SWAP2 SWAP1 POP JUMP JUMPDEST PUSH2 0x7A6 DUP2 PUSH2 0x78B JUMP JUMPDEST DUP3 MSTORE POP POP JUMP JUMPDEST PUSH1 0x0 PUSH1 0x20 DUP3 ADD SWAP1 POP PUSH2 0x7C1 PUSH1 0x0 DUP4 ADD DUP5 PUSH2 0x79D JUMP JUMPDEST SWAP3 SWAP2 POP POP JUMP JUMPDEST PUSH1 0x0 DUP1 REVERT JUMPDEST PUSH1 0x0 DUP1 REVERT JUMPDEST PUSH1 0x0 DUP1 REVERT JUMPDEST PUSH1 0x0 DUP1 REVERT JUMPDEST PUSH1 0x0 DUP1 REVERT JUMPDEST PUSH1 0x0 DUP1 DUP4 PUSH1 0x1F DUP5 ADD SLT PUSH2 0x7F6 JUMPI PUSH2 0x7F5 PUSH2 0x7D1 JUMP JUMPDEST JUMPDEST DUP3 CALLDATALOAD SWAP1 POP PUSH8 0xFFFFFFFFFFFFFFFF DUP2 GT ISZERO PUSH2 0x813 JUMPI PUSH2 0x812 PUSH2 0x7D6 JUMP JUMPDEST JUMPDEST PUSH1 0x20 DUP4 ADD SWAP2 POP DUP4 PUSH1 0x1 DUP3 MUL DUP4 ADD GT ISZERO PUSH2 0x82F JUMPI PUSH2 0x82E PUSH2 0x7DB JUMP JUMPDEST JUMPDEST SWAP3 POP SWAP3 SWAP1 POP JUMP JUMPDEST PUSH1 0x0 DUP1 PUSH1 0x20 DUP4 DUP6 SUB SLT ISZERO PUSH2 0x84D JUMPI PUSH2 0x84C PUSH2 0x7C7 JUMP JUMPDEST JUMPDEST PUSH1 0x0 DUP4 ADD CALLDATALOAD PUSH8 0xFFFFFFFFFFFFFFFF DUP2 GT ISZERO PUSH2 0x86B JUMPI PUSH2 0x86A PUSH2 0x7CC JUMP JUMPDEST JUMPDEST PUSH2 0x877 DUP6 DUP3 DUP7 ADD PUSH2 0x7E0 JUMP JUMPDEST SWAP3 POP SWAP3 POP POP SWAP3 POP SWAP3 SWAP1 POP JUMP JUMPDEST PUSH32 0x4E487B7100000000000000000000000000000000000000000000000000000000 PUSH1 0x0 MSTORE PUSH1 0x22 PUSH1 0x4 MSTORE PUSH1 0x24 PUSH1 0x0 REVERT JUMPDEST PUSH1 0x0 PUSH1 0x2 DUP3 DIV SWAP1 POP PUSH1 0x1 DUP3 AND DUP1 PUSH2 0x8CA JUMPI PUSH1 0x7F DUP3 AND SWAP2 POP JUMPDEST PUSH1 0x20 DUP3 LT DUP2 SUB PUSH2 0x8DD JUMPI PUSH2 0x8DC PUSH2 0x883 JUMP JUMPDEST JUMPDEST POP SWAP2 SWAP1 POP JUMP JUMPDEST PUSH32 0x596F75206E65656420746F206265207468652070726F6A65637420617574686F PUSH1 0x0 DUP3 ADD MSTORE PUSH32 0x7200000000000000000000000000000000000000000000000000000000000000 PUSH1 0x20 DUP3 ADD MSTORE POP JUMP JUMPDEST PUSH1 0x0 PUSH2 0x93F PUSH1 0x21 DUP4 PUSH2 0x690 JUMP JUMPDEST SWAP2 POP PUSH2 0x94A DUP3 PUSH2 0x8E3 JUMP JUMPDEST PUSH1 0x40 DUP3 ADD SWAP1 POP SWAP2 SWAP1 POP JUMP JUMPDEST PUSH1 0x0 PUSH1 0x20 DUP3 ADD SWAP1 POP DUP2 DUP2 SUB PUSH1 0x0 DUP4 ADD MSTORE PUSH2 0x96E DUP2 PUSH2 0x932 JUMP JUMPDEST SWAP1 POP SWAP2 SWAP1 POP JUMP JUMPDEST PUSH1 0x0 DUP3 SWAP1 POP SWAP3 SWAP2 POP POP JUMP JUMPDEST PUSH32 0x4E487B7100000000000000000000000000000000000000000000000000000000 PUSH1 0x0 MSTORE PUSH1 0x41 PUSH1 0x4 MSTORE PUSH1 0x24 PUSH1 0x0 REVERT JUMPDEST PUSH1 0x0 DUP2 SWAP1 POP DUP2 PUSH1 0x0 MSTORE PUSH1 0x20 PUSH1 0x0 KECCAK256 SWAP1 POP SWAP2 SWAP1 POP JUMP JUMPDEST PUSH1 0x0 PUSH1 0x20 PUSH1 0x1F DUP4 ADD DIV SWAP1 POP SWAP2 SWAP1 POP JUMP JUMPDEST PUSH1 0x0 DUP3 DUP3 SHL SWAP1 POP SWAP3 SWAP2 POP POP JUMP JUMPDEST PUSH1 0x0 PUSH1 0x8 DUP4 MUL PUSH2 0xA11 PUSH32 0xFFFFFFFFFFFFFFFFFFFFFFFFFFFFFFFFFFFFFFFFFFFFFFFFFFFFFFFFFFFFFFFF DUP3 PUSH2 0x9D4 JUMP JUMPDEST PUSH2 0xA1B DUP7 DUP4 PUSH2 0x9D4 JUMP JUMPDEST SWAP6 POP DUP1 NOT DUP5 AND SWAP4 POP DUP1 DUP7 AND DUP5 OR SWAP3 POP POP POP SWAP4 SWAP3 POP POP POP JUMP JUMPDEST PUSH1 0x0 DUP2 SWAP1 POP SWAP2 SWAP1 POP JUMP JUMPDEST PUSH1 0x0 PUSH2 0xA58 PUSH2 0xA53 PUSH2 0xA4E DUP5 PUSH2 0x737 JUMP JUMPDEST PUSH2 0xA33 JUMP JUMPDEST PUSH2 0x737 JUMP JUMPDEST SWAP1 POP SWAP2 SWAP1 POP JUMP JUMPDEST PUSH1 0x0 DUP2 SWAP1 POP SWAP2 SWAP1 POP JUMP JUMPDEST PUSH2 0xA72 DUP4 PUSH2 0xA3D JUMP JUMPDEST PUSH2 0xA86 PUSH2 0xA7E DUP3 PUSH2 0xA5F JUMP JUMPDEST DUP5 DUP5 SLOAD PUSH2 0x9E1 JUMP JUMPDEST DUP3 SSTORE POP POP POP POP JUMP JUMPDEST PUSH1 0x0 SWAP1 JUMP JUMPDEST PUSH2 0xA9B PUSH2 0xA8E JUMP JUMPDEST PUSH2 0xAA6 DUP2 DUP5 DUP5 PUSH2 0xA69 JUMP JUMPDEST POP POP POP JUMP JUMPDEST JUMPDEST DUP2 DUP2 LT ISZERO PUSH2 0xACA JUMPI PUSH2 0xABF PUSH1 0x0 DUP3 PUSH2 0xA93 JUMP JUMPDEST PUSH1 0x1 DUP2 ADD SWAP1 POP PUSH2 0xAAC JUMP JUMPDEST POP POP JUMP JUMPDEST PUSH1 0x1F DUP3 GT ISZERO PUSH2 0xB0F JUMPI PUSH2 0xAE0 DUP2 PUSH2 0x9AF JUMP JUMPDEST PUSH2 0xAE9 DUP5 PUSH2 0x9C4 JUMP JUMPDEST DUP2 ADD PUSH1 0x20 DUP6 LT ISZERO PUSH2 0xAF8 JUMPI DUP2 SWAP1 POP JUMPDEST PUSH2 0xB0C PUSH2 0xB04 DUP6 PUSH2 0x9C4 JUMP JUMPDEST DUP4 ADD DUP3 PUSH2 0xAAB JUMP JUMPDEST POP POP JUMPDEST POP POP POP JUMP JUMPDEST PUSH1 0x0 DUP3 DUP3 SHR SWAP1 POP SWAP3 SWAP2 POP POP JUMP JUMPDEST PUSH1 0x0 PUSH2 0xB32 PUSH1 0x0 NOT DUP5 PUSH1 0x8 MUL PUSH2 0xB14 JUMP JUMPDEST NOT DUP1 DUP4 AND SWAP2 POP POP SWAP3 SWAP2 POP POP JUMP JUMPDEST PUSH1 0x0 PUSH2 0xB4B DUP4 DUP4 PUSH2 0xB21 JUMP JUMPDEST SWAP2 POP DUP3 PUSH1 0x2 MUL DUP3 OR SWAP1 POP SWAP3 SWAP2 POP POP JUMP JUMPDEST PUSH2 0xB65 DUP4 DUP4 PUSH2 0x975 JUMP JUMPDEST PUSH8 0xFFFFFFFFFFFFFFFF DUP2 GT ISZERO PUSH2 0xB7E JUMPI PUSH2 0xB7D PUSH2 0x980 JUMP JUMPDEST JUMPDEST PUSH2 0xB88 DUP3 SLOAD PUSH2 0x8B2 JUMP JUMPDEST PUSH2 0xB93 DUP3 DUP3 DUP6 PUSH2 0xACE JUMP JUMPDEST PUSH1 0x0 PUSH1 0x1F DUP4 GT PUSH1 0x1 DUP2 EQ PUSH2 0xBC2 JUMPI PUSH1 0x0 DUP5 ISZERO PUSH2 0xBB0 JUMPI DUP3 DUP8 ADD CALLDATALOAD SWAP1 POP JUMPDEST PUSH2 0xBBA DUP6 DUP3 PUSH2 0xB3F JUMP JUMPDEST DUP7 SSTORE POP PUSH2 0xC22 JUMP JUMPDEST PUSH1 0x1F NOT DUP5 AND PUSH2 0xBD0 DUP7 PUSH2 0x9AF JUMP JUMPDEST PUSH1 0x0 JUMPDEST DUP3 DUP2 LT ISZERO PUSH2 0xBF8 JUMPI DUP5 DUP10 ADD CALLDATALOAD DUP3 SSTORE PUSH1 0x1 DUP3 ADD SWAP2 POP PUSH1 0x20 DUP6 ADD SWAP5 POP PUSH1 0x20 DUP2 ADD SWAP1 POP PUSH2 0xBD3 JUMP JUMPDEST DUP7 DUP4 LT ISZERO PUSH2 0xC15 JUMPI DUP5 DUP10 ADD CALLDATALOAD PUSH2 0xC11 PUSH1 0x1F DUP10 AND DUP3 PUSH2 0xB21 JUMP JUMPDEST DUP4 SSTORE POP JUMPDEST PUSH1 0x1 PUSH1 0x2 DUP9 MUL ADD DUP9 SSTORE POP POP POP JUMPDEST POP POP POP POP POP POP POP JUMP JUMPDEST PUSH1 0x0 DUP2 SLOAD PUSH2 0xC38 DUP2 PUSH2 0x8B2 JUMP JUMPDEST PUSH2 0xC42 DUP2 DUP7 PUSH2 0x690 JUMP JUMPDEST SWAP5 POP PUSH1 0x1 DUP3 AND PUSH1 0x0 DUP2 EQ PUSH2 0xC5D JUMPI PUSH1 0x1 DUP2 EQ PUSH2 0xC73 JUMPI PUSH2 0xCA6 JUMP JUMPDEST PUSH1 0xFF NOT DUP4 AND DUP7 MSTORE DUP2 ISZERO ISZERO PUSH1 0x20 MUL DUP7 ADD SWAP4 POP PUSH2 0xCA6 JUMP JUMPDEST PUSH2 0xC7C DUP6 PUSH2 0x9AF JUMP JUMPDEST PUSH1 0x0 JUMPDEST DUP4 DUP2 LT ISZERO PUSH2 0xC9E JUMPI DUP2 SLOAD DUP2 DUP10 ADD MSTORE PUSH1 0x1 DUP3 ADD SWAP2 POP PUSH1 0x20 DUP2 ADD SWAP1 POP PUSH2 0xC7F JUMP JUMPDEST DUP1 DUP9 ADD SWAP6 POP POP POP JUMPDEST POP POP POP SWAP3 SWAP2 POP POP JUMP JUMPDEST DUP3 DUP2 DUP4 CALLDATACOPY PUSH1 0x0 DUP4 DUP4 ADD MSTORE POP POP POP JUMP JUMPDEST PUSH1 0x0 PUSH2 0xCCA DUP4 DUP6 PUSH2 0x690 JUMP JUMPDEST SWAP4 POP PUSH2 0xCD7 DUP4 DUP6 DUP5 PUSH2 0xCAF JUMP JUMPDEST PUSH2 0xCE0 DUP4 PUSH2 0x6CB JUMP JUMPDEST DUP5 ADD SWAP1 POP SWAP4 SWAP3 POP POP POP JUMP JUMPDEST PUSH1 0x0 PUSH1 0x40 DUP3 ADD SWAP1 POP DUP2 DUP2 SUB PUSH1 0x0 DUP4 ADD MSTORE PUSH2 0xD05 DUP2 DUP7 PUSH2 0xC2B JUMP JUMPDEST SWAP1 POP DUP2 DUP2 SUB PUSH1 0x20 DUP4 ADD MSTORE PUSH2 0xD1A DUP2 DUP5 DUP7 PUSH2 0xCBE JUMP JUMPDEST SWAP1 POP SWAP5 SWAP4 POP POP POP POP JUMP JUMPDEST PUSH32 0x417320617574686F7220796F752063616E206E6F742066756E6420796F757220 PUSH1 0x0 DUP3 ADD MSTORE PUSH32 0x6F776E2070726F6A656374000000000000000000000000000000000000000000 PUSH1 0x20 DUP3 ADD MSTORE POP JUMP JUMPDEST PUSH1 0x0 PUSH2 0xD80 PUSH1 0x2B DUP4 PUSH2 0x690 JUMP JUMPDEST SWAP2 POP PUSH2 0xD8B DUP3 PUSH2 0xD24 JUMP JUMPDEST PUSH1 0x40 DUP3 ADD SWAP1 POP SWAP2 SWAP1 POP JUMP JUMPDEST PUSH1 0x0 PUSH1 0x20 DUP3 ADD SWAP1 POP DUP2 DUP2 SUB PUSH1 0x0 DUP4 ADD MSTORE PUSH2 0xDAF DUP2 PUSH2 0xD73 JUMP JUMPDEST SWAP1 POP SWAP2 SWAP1 POP JUMP JUMPDEST PUSH32 0x4E487B7100000000000000000000000000000000000000000000000000000000 PUSH1 0x0 MSTORE PUSH1 0x11 PUSH1 0x4 MSTORE PUSH1 0x24 PUSH1 0x0 REVERT JUMPDEST PUSH1 0x0 PUSH2 0xDF0 DUP3 PUSH2 0x737 JUMP JUMPDEST SWAP2 POP PUSH2 0xDFB DUP4 PUSH2 0x737 JUMP JUMPDEST SWAP3 POP DUP3 DUP3 ADD SWAP1 POP DUP1 DUP3 GT ISZERO PUSH2 0xE13 JUMPI PUSH2 0xE12 PUSH2 0xDB6 JUMP JUMPDEST JUMPDEST SWAP3 SWAP2 POP POP JUMP JUMPDEST PUSH1 0x0 PUSH1 0x40 DUP3 ADD SWAP1 POP DUP2 DUP2 SUB PUSH1 0x0 DUP4 ADD MSTORE PUSH2 0xE33 DUP2 DUP6 PUSH2 0xC2B JUMP JUMPDEST SWAP1 POP PUSH2 0xE42 PUSH1 0x20 DUP4 ADD DUP5 PUSH2 0x741 JUMP JUMPDEST SWAP4 SWAP3 POP POP POP JUMP INVALID LOG2 PUSH5 0x6970667358 0x22 SLT KECCAK256 0xEF LOG4 CALLCODE 0xE7 0xDA 0xBD PUSH13 0xB9BC674321A490A48B0F5F0937 0xC7 0x2A SWAP7 0xD9 DUP12 0xFB SWAP1 CALL 0xB0 LT 0xFC 0x4A PUSH5 0x736F6C6343 STOP ADDMOD SLT STOP CALLER "
				},
				"gasEstimates": {
					"creation": {
						"codeDepositCost": "742200",
						"executionCost": "infinite",
						"totalCost": "infinite"
					},
					"external": {
						"author()": "2581",
						"changeProjectState(string)": "infinite",
						"description()": "infinite",
						"fundProject()": "infinite",
						"fundraisingGoal()": "2474",
						"funds()": "2495",
						"id()": "infinite",
						"name()": "infinite",
						"state()": "infinite"
					}
				},
				"methodIdentifiers": {
					"author()": "a6c3e6b9",
					"changeProjectState(string)": "b767050d",
					"description()": "7284e416",
					"fundProject()": "d63dc661",
					"fundraisingGoal()": "9e7b08d5",
					"funds()": "c89f2ce4",
					"id()": "af640d0f",
					"name()": "06fdde03",
					"state()": "c19d93fb"
				}
			},
			"storageLayout": {
				"storage": [
					{
						"astId": 3,
						"contract": "contracts/project/CrowdFunding2.sol:CrowdFunding",
						"label": "id",
						"offset": 0,
						"slot": "0",
						"type": "t_string_storage"
					},
					{
						"astId": 5,
						"contract": "contracts/project/CrowdFunding2.sol:CrowdFunding",
						"label": "name",
						"offset": 0,
						"slot": "1",
						"type": "t_string_storage"
					},
					{
						"astId": 7,
						"contract": "contracts/project/CrowdFunding2.sol:CrowdFunding",
						"label": "description",
						"offset": 0,
						"slot": "2",
						"type": "t_string_storage"
					},
					{
						"astId": 9,
						"contract": "contracts/project/CrowdFunding2.sol:CrowdFunding",
						"label": "author",
						"offset": 0,
						"slot": "3",
						"type": "t_address_payable"
					},
					{
						"astId": 12,
						"contract": "contracts/project/CrowdFunding2.sol:CrowdFunding",
						"label": "state",
						"offset": 0,
						"slot": "4",
						"type": "t_string_storage"
					},
					{
						"astId": 14,
						"contract": "contracts/project/CrowdFunding2.sol:CrowdFunding",
						"label": "funds",
						"offset": 0,
						"slot": "5",
						"type": "t_uint256"
					},
					{
						"astId": 16,
						"contract": "contracts/project/CrowdFunding2.sol:CrowdFunding",
						"label": "fundraisingGoal",
						"offset": 0,
						"slot": "6",
						"type": "t_uint256"
					}
				],
				"types": {
					"t_address_payable": {
						"encoding": "inplace",
						"label": "address payable",
						"numberOfBytes": "20"
					},
					"t_string_storage": {
						"encoding": "bytes",
						"label": "string",
						"numberOfBytes": "32"
					},
					"t_uint256": {
						"encoding": "inplace",
						"label": "uint256",
						"numberOfBytes": "32"
					}
				}
			},
			"userdoc": {
				"kind": "user",
				"methods": {},
				"version": 1
			}
		}
	}
}